:020000040800F2
:1000000000C000206DD5000801D200080DD2000804
:1000100013D2000819D200081FD200080000000007
:1000200000000000000000000000000025D20008D1
:1000300031D20008000000003DD2000849D200087B
:10004000B5D50008B5D50008B5D50008B5D5000868
:10005000B5D50008B5D5000855D20008B5D50008BB
:10006000B5D50008B5D50008B5D50008B5D5000848
:10007000B5D50008B5D50008B5D50008B5D5000838
:10008000B5D50008B5D50008B5D50008B5D5000828
:10009000B5D50008B5D50008B5D5000863D200086D
:1000A000B5D50008B5D50008B5D50008B5D5000808
:1000B000B5D5000871D20008B5D50008B5D500083F
:1000C000B5D50008B5D50008B5D50008B5D50008E8
:1000D000B5D5000885D20008B5D50008B5D500080B
:1000E000B9D20008B5D50008B5D50008B5D50008C7
:1000F000B5D50008B5D50008B5D50008B5D50008B8
:10010000B5D50008B5D50008B5D50008B5D50008A7
:10011000B5D50008B5D50008B5D50008B5D5000897
:10012000B5D50008B5D50008B5D50008B5D5000887
:1001300000000000000000000000000000000000BF
:1001400000000000000000000000000000000000AF
:10015000000000000000000000000000000000009F
:10016000000000000000000000000000000000008F
:10017000000000000000000000000000000000007F
:10018000000000000000000000000000000000006F
:10019000000000000000000000000000000000005F
:1001A000000000000000000000000000000000004F
:1001B000000000000000000000000000000000003F
:1001C000000000000000000000000000000000002F
:1001D000000000000000000000000000000000001F
:0401E0005FF8E0F1F3
:1001E80010B5054C237833B9044B13B10448AFF369
:1001F80000800123237010BD7C0300200000000054
:1002080028F0000808B5034B1BB103490348AFF3B6
:10021800008008BD000000008003002028F00008CE
:1002280081F0004102E000BF83F0004330B54FEA9F
:1002380041044FEA430594EA050F08BF90EA020F0C
:100248001FBF54EA000C55EA020C7FEA645C7FEA9F
:10025800655C00F0E2804FEA5454D4EB5555B8BFC2
:100268006D420CDD2C4480EA020281EA030382EA33
:10027800000083EA010180EA020281EA0303362DC5
:1002880088BF30BD11F0004F4FEA01314FF4801C98
:100298004CEA113102D0404261EB410113F0004FAA
:1002A8004FEA03334CEA133302D0524263EB430361
:1002B80094EA050F00F0A780A4F10104D5F1200EFF
:1002C8000DDB02FA0EFC22FA05F2801841F100015A
:1002D80003FA0EF2801843FA05F359410EE0A5F12E
:1002E80020050EF1200E012A03FA0EFC28BF4CF05F
:1002F800020C43FA05F3C01851EBE37101F0004515
:1003080007D54FF0000EDCF1000C7EEB00006EEB21
:100318000101B1F5801F1BD3B1F5001F0CD34908AB
:100328005FEA30004FEA3C0C04F101044FEA445202
:1003380012F5800F80F09A80BCF1004F08BF5FEA89
:10034800500C50F1000041EB045141EA050130BD69
:100358005FEA4C0C404141EB010111F4801FA4F10C
:100368000104E9D191F0000F04BF01460020B1FA61
:1003780081F308BF2033A3F10B03B3F120020CDA99
:100388000C3208DD02F1140CC2F10C0201FA0CF077
:1003980021FA02F10CE002F11402D8BFC2F1200CDC
:1003A80001FA02F120FA0CFCDCBF41EA0C01904092
:1003B800E41AA2BF01EB0451294330BD6FEA0404DB
:1003C8001F3C1CDA0C340EDC04F11404C4F12002C6
:1003D80020FA04F001FA02F340EA030021FA04F3D8
:1003E80045EA030130BDC4F10C04C4F1200220FA2F
:1003F80002F001FA04F340EA0300294630BD21FA6D
:1004080004F0294630BD94F0000F83F4801306BF32
:1004180081F480110134013D4EE77FEA645C18BF26
:100428007FEA655C29D094EA050F08BF90EA020FBD
:1004380005D054EA000C04BF1946104630BD91EAB5
:10044800030F1EBF0021002030BD5FEA545C05D1B8
:100458004000494128BF41F0004130BD14F58004F7
:100468003CBF01F5801130BD01F0004545F0FE416B
:1004780041F470014FF0000030BD7FEA645C1ABFA0
:10048800194610467FEA655C1CBF0B46024650EAD7
:10049800013406BF52EA033591EA030F41F4002103
:1004A80030BD00BF90F0000F04BF0021704730B589
:1004B8004FF4806404F132044FF000054FF000015E
:1004C80050E700BF90F0000F04BF0021704730B51F
:1004D8004FF4806404F1320410F0004548BF4042F4
:1004E8004FF000013EE700BF42004FEAE2014FEA49
:1004F80031014FEA02701FBF12F07F4393F07F4F24
:1005080081F06051704732F07F4208BF704793F026
:100518007F4F04BF41F40021704730B54FF4607439
:1005280001F0004521F000411CE700BF50EA01023C
:1005380008BF704730B54FF000050AE050EA0102E5
:1005480008BF704730B511F0004502D5404261EB55
:1005580041014FF4806404F132045FEA915C3FF496
:10056800D8AE4FF003025FEADC0C18BF03325FEA33
:10057800DC0C18BF033202EBDC02C2F1200300FAE4
:1005880003FC20FA02F001FA03FE40EA0E0021FA09
:1005980002F11444BDE600BF70B54FF0FF0C4CF4F7
:1005A800E06C1CEA11541DBF1CEA135594EA0C0FA9
:1005B80095EA0C0F00F0DEF82C4481EA030621EAE4
:1005C8004C5123EA4C5350EA013518BF52EA03351F
:1005D80041F4801143F4801338D0A0FB02CE4FF0D1
:1005E8000005E1FB02E506F00042E0FB03E54FF001
:1005F8000006E1FB03569CF0000F18BF4EF0010EF9
:10060800A4F1FF04B6F5007F64F5407404D25FEAF4
:100618004E0E6D4146EB060642EAC62141EA5551A7
:100628004FEAC52040EA5E504FEACE2EB4F1FD0CE9
:1006380088BFBCF5E06F1ED8BEF1004F08BF5FEA67
:10064800500E50F1000041EB045170BD06F0004619
:1006580046EA010140EA020081EA0301B4EB5C04C6
:10066800C2BFD4EB0C0541EA045170BD41F48011BE
:100678004FF0000E013C00F3AB8014F1360FDEBFE3
:10068800002001F0004170BDC4F10004203C35DABF
:100698000C341BDC04F11404C4F1200500FA05F342
:1006A80020FA04F001FA05F240EA020001F00042E3
:1006B80021F0004110EBD37021FA04F642EB060159
:1006C8005EEA430E08BF20EAD37070BDC4F10C0483
:1006D800C4F1200500FA04F320FA05F001FA04F247
:1006E80040EA020001F0004110EBD37041F1000133
:1006F8005EEA430E08BF20EAD37070BDC4F120053E
:1007080000FA05F24EEA020E20FA04F301FA05F2A5
:1007180043EA020321FA04F001F0004121FA04F24D
:1007280020EA020000EBD3705EEA430E08BF20EA1D
:10073800D37070BD94F0000F0FD101F00046400057
:1007480041EB010111F4801F08BF013CF7D041EAD9
:10075800060195F0000F18BF704703F000465200DD
:1007680043EB030313F4801F08BF013DF7D043EAAE
:100778000603704794EA0C0F0CEA135518BF95EA64
:100788000C0F0CD050EA410618BF52EA4306D1D1EB
:1007980081EA030101F000414FF0000070BD50EA0A
:1007A800410606BF1046194652EA430619D094EA94
:1007B8000C0F02D150EA013613D195EA0C0F05D17E
:1007C80052EA03361CBF104619460AD181EA0301D2
:1007D80001F0004141F0FE4141F470014FF000008A
:1007E80070BD41F0FE4141F4780170BD70B54FF025
:1007F800FF0C4CF4E06C1CEA11541DBF1CEA1355A5
:1008080094EA0C0F95EA0C0F00F0A7F8A4EB050486
:1008180081EA030E52EA03354FEA013100F088807D
:100828004FEA03334FF0805545EA131343EA126346
:100838004FEA022245EA111545EA10654FEA0026FB
:100848000EF000419D4208BF964244F1FD0404F5B4
:10085800407402D25B084FEA3202B61A65EB030510
:100868005B084FEA32024FF480104FF4002CB6EBCD
:10087800020E75EB030E22BFB61A754640EA0C004D
:100888005B084FEA3202B6EB020E75EB030E22BF8D
:10089800B61A754640EA5C005B084FEA3202B6EBCE
:1008A800020E75EB030E22BFB61A754640EA9C008D
:1008B8005B084FEA3202B6EB020E75EB030E22BF5D
:1008C800B61A754640EADC0055EA060E18D04FEA1B
:1008D800051545EA16754FEA06164FEAC30343EABB
:1008E80052734FEAC2025FEA1C1CC0D111F4801F88
:1008F8000BD141EA00014FF000004FF0004CB6E781
:1009080011F4801F04BF01430020B4F1FD0C88BF1F
:10091800BCF5E06F3FF6AFAEB5EB030C04BFB6EB2A
:10092800020C5FEA500C50F1000041EB045170BD1D
:100938000EF0004E4EEA113114EB5C04C2BFD4EB4A
:100948000C0541EA045170BD41F480114FF0000ECE
:10095800013C90E645EA060E8DE60CEA135594EA4A
:100968000C0F08BF95EA0C0F3FF43BAF94EA0C0F4D
:100978000AD150EA01347FF434AF95EA0C0F7FF4C2
:1009880025AF104619462CE795EA0C0F06D152EA16
:1009980003353FF4FDAE1046194622E750EA4106FA
:1009A80018BF52EA43067FF4C5AE50EA41047FF40B
:1009B8000DAF52EA43057FF4EBAE12E74FF0FF3C70
:1009C80006E000BF4FF0010C02E000BF4FF0010C41
:1009D8004DF804CD4FEA410C7FEA6C5C4FEA430CBA
:1009E80018BF7FEA6C5C1BD001B050EA410C0CBF09
:1009F80052EA430C91EA030F02BF90EA020F00206B
:100A0800704710F1000F91EA030F58BF994208BFD1
:100A180090422CBFD8176FEAE37040F0010070478E
:100A28004FEA410C7FEA6C5C02D150EA013C07D1E5
:100A38004FEA430C7FEA6C5CD6D152EA033CD3D030
:100A48005DF8040B704700BF8446104662468C462A
:100A58001946634600E000BF01B5FFF7B7FF00285D
:100A680048BF10F1000F01BD4DF808EDFFF7F4FF86
:100A78000CBF012000205DF808FB00BF4DF808ED11
:100A8800FFF7EAFF34BF012000205DF808FB00BF34
:100A98004DF808EDFFF7E0FF94BF012000205DF856
:100AA80008FB00BF4DF808EDFFF7CEFF94BF01200B
:100AB80000205DF808FB00BF4DF808EDFFF7C4FF04
:100AC80034BF012000205DF808FB00BF4FEA410257
:100AD80012F5001215D211D56FF47873B3EB625288
:100AE80012D94FEAC12343F0004343EA505311F0AF
:100AF800004F23FA02F018BF404270474FF0000041
:100B0800704750EA013005D111F0004008BF6FF07E
:100B1800004070474FF00000704700BF4A0011D2F4
:100B280012F5001211D20DD56FF47873B3EB62523F
:100B38000ED44FEAC12343F0004343EA505323FA4B
:100B480002F070474FF00000704750EA013002D1C0
:100B58004FF0FF3070474FF00000704780F00040C2
:100B680002E000BF81F0004142001FBF5FEA41037D
:100B780092EA030F7FEA226C7FEA236C6AD04FEA7D
:100B88001262D2EB1363C1BFD218414048404140C2
:100B9800B8BF5B42192B88BF704710F0004F40F474
:100BA800000020F07F4018BF404211F0004F41F490
:100BB800000121F07F4118BF494292EA030F3FD05C
:100BC800A2F1010241FA03FC10EB0C00C3F120036F
:100BD80001FA03F100F0004302D5494260EB4000FE
:100BE800B0F5000F13D3B0F1807F06D340084FEA69
:100BF800310102F10102FE2A51D2B1F1004F40EB5E
:100C0800C25008BF20F0010040EA030070474900C5
:100C180040EB000010F4000FA2F10102EDD1B0FA90
:100C280080FCACF1080CB2EB0C0200FA0CF0AABF85
:100C380000EBC25052421843BCBFD0401843704723
:100C480092F0000F81F4000106BF80F40000013229
:100C5800013BB5E74FEA41037FEA226C18BF7FEA00
:100C6800236C21D092EA030F04D092F0000F08BF42
:100C78000846704790EA010F1CBF0020704712F029
:100C88007F4F04D1400028BF40F00040704712F168
:100C980000723CBF00F50000704700F0004343F0CD
:100CA800FE4040F4000070477FEA226216BF084603
:100CB8007FEA23630146420206BF5FEA412390EAC6
:100CC800010F40F4800070474FF0000304E000BFBC
:100CD80010F0004348BF40425FEA000C08BF70476D
:100CE80043F0964301464FF000001CE050EA010231
:100CF80008BF70474FF000030AE000BF50EA010246
:100D080008BF704711F0004302D5404261EB410132
:100D18005FEA010C02BF84460146002043F0B64357
:100D280008BFA3F18053A3F50003BCFA8CF2083A7C
:100D3800A3EBC25310DB01FA02FC634400FA02FC85
:100D4800C2F12002BCF1004F20FA02F243EB02008C
:100D580008BF20F00100704702F1200201FA02FCEE
:100D6800C2F1200250EA4C0021FA02F243EB0200E1
:100D780008BF20EADC7070474FF0FF0C1CEAD05225
:100D88001EBF1CEAD15392EA0C0F93EA0C0F6FD0E6
:100D98001A4480EA010C400218BF5FEA41211ED0C4
:100DA8004FF0006343EA501043EA5111A0FB0131B0
:100DB8000CF00040B1F5000F3EBF490041EAD37185
:100DC8005B0040EA010062F17F02FD2A1DD8B3F101
:100DD800004F40EBC25008BF20F00100704790F070
:100DE800000F0CF0004C08BF49024CEA502040EAC2
:100DF80051207F3AC2BFD2F1FF0340EAC250704788
:100E080040F400004FF00003013A5DDC12F1190FC5
:100E1800DCBF00F000407047C2F10002410021FA37
:100E280002F1C2F1200200FA02FC5FEA310040F14F
:100E3800000053EA4C0308BF20EADC70704792F0C8
:100E4800000F00F0004C02BF400010F4000F013A00
:100E5800F9D040EA0C0093F0000F01F0004C02BFFB
:100E6800490011F4000F013BF9D041EA0C018FE76A
:100E78000CEAD15392EA0C0F18BF93EA0C0F0AD070
:100E880030F0004C18BF31F0004CD8D180EA010096
:100E980000F00040704790F0000F17BF90F0004F2F
:100EA800084691F0000F91F0004F14D092EA0C0F11
:100EB80001D142020FD193EA0C0F03D14B0218BFA4
:100EC800084608D180EA010000F0004040F0FE40EA
:100ED80040F40000704740F0FE4040F44000704786
:100EE8004FF0FF0C1CEAD0521EBF1CEAD15392EA05
:100EF8000C0F93EA0C0F69D0A2EB030280EA010CF5
:100F080049024FEA402037D04FF0805343EA11118D
:100F180043EA10130CF000408B4238BF5B0042F1EB
:100F28007D024FF4000C8B4224BF5B1A40EA0C0090
:100F3800B3EB510F24BFA3EB510340EA5C00B3EBC2
:100F4800910F24BFA3EB910340EA9C00B3EBD10FB0
:100F580024BFA3EBD10340EADC001B0118BF5FEA02
:100F68001C1CE0D1FD2A3FF650AF8B4240EBC2502B
:100F780008BF20F0010070470CF0004C4CEA5020EC
:100F88007F32C2BFD2F1FF0340EAC250704740F43B
:100F980000004FF00003013A37E792F0000F00F02D
:100FA800004C02BF400010F4000F013AF9D040EAAB
:100FB8000C0093F0000F01F0004C02BF490011F43F
:100FC800000F013BF9D041EA0C0195E70CEAD15337
:100FD80092EA0C0F08D142027FF47DAF93EA0C0F1E
:100FE8007FF470AF084676E793EA0C0F04D14B0202
:100FF8003FF44CAF08466EE730F0004C18BF31F0B4
:10100800004CCAD130F000427FF45CAF31F00043AD
:101018007FF43CAF5FE700BF80B500AF084B1B68AB
:10102800074A43F010031360032000F061FB00201F
:1010380000F008F80CF0AEF80023184680BD00BF99
:101048000020024080B582B000AF7860124B1A6869
:10105800124B1B7819464FF47A73B3FBF1F3B2FBCA
:10106800F3F3184600F079FB0346002B01D0012367
:101078000EE07B680F2B0AD8002279684FF0FF300A
:1010880000F041FB064A7B681360002300E001235F
:1010980018460837BD4680BDA8010020040000207E
:1010A8000000002080B400AF054B1B781A46054BA2
:1010B8001B681344034A136000BFBD4680BC7047D9
:1010C80004000020D007002080B400AF024B1B684A
:1010D8001846BD4680BC7047D007002080B584B054
:1010E80000AF7860FFF7F0FFB8607B68FB60FB68D3
:1010F800B3F1FF3F05D0094B1B781A46FB68134430
:10110800FB6000BFFFF7E0FF0246BB68D31AFA682E
:101118009A42F7D800BF1037BD4680BD04000020B2
:1011280080B586B000AF78600023FB7500233B6173
:101138000023BB600023FB607B68002B01D10123E7
:10114800CEE07B689B68002B7B689B6A002B09D1EB
:101158007B680022DA627B68002283F824207868A2
:1011680003F02EFA786800F0BDF90346FB757B683A
:101178009B6A03F01003002B40F0A980FB7D002B35
:1011880040F0A5807B689B6A23F4885323F0020310
:1011980043F002027B689A627B685A687B681B6826
:1011A80051498B420AD17B68DB69B3F5402F02D0E5
:1011B8007B68DB6904E04FF4002301E07B68DB69AE
:1011C8001A437B681B7B5B001343BA681343BB60FD
:1011D8007B689B68B3F5807F03D07B689B68012B95
:1011E80002D14FF4807300E000233A6913433B6156
:1011F8007B681B7D012B19D17B681B7B002B09D1D8
:101208007B689B69013B5A033B69134343F40063C2
:101218003B610BE07B689B6A43F020027B689A6223
:101228007B68DB6A43F001027B68DA627B681B68D3
:101238005B6823F469417B681B683A690A435A6012
:101248007B681B689A68294B13407A681268B968EA
:101258000B4393607B689B68B3F5807F03D07B6802
:101268009B68012B04D17B681B69013B1B05FB6054
:101278007B681B68DB6A23F470017B681B68FA686B
:101288000A43DA627B681B689A68194B1340BA688C
:101298009A420BD17B680022DA627B689B6A23F052
:1012A800030343F001027B689A6218E07B689B6A3B
:1012B80023F0120343F010027B689A627B68DB6AB2
:1012C80043F001027B68DA620123FB7507E07B6863
:1012D8009B6A43F010027B689A620123FB75FB7DD1
:1012E80018461837BD4680BD003C0140FDF7E1FFB8
:1012F800FE0E1FFF80B485B000AF78603960002310
:10130800FB730023BB607B6893F82430012B01D169
:101318000223DCE07B68012283F824203B685B68B9
:10132800062B1CD87B681B68596B3B685A681346A8
:101338009B001344053B1F2202FA03F3DB431940C9
:101348003B6818683B685A6813469B001344053B82
:1013580000FA03F27B681B680A435A633CE03B6867
:101368005B680C2B1CD87B681B68196B3B685A6838
:1013780013469B001344233B1F2202FA03F3DB436B
:1013880019403B6818683B685A6813469B00134429
:10139800233B00FA03F27B681B680A431A631BE0CD
:1013A8007B681B68D96A3B685A6813469B001344DC
:1013B800413B1F2202FA03F3DB4319403B681868DC
:1013C8003B685A6813469B001344413B00FA03F2FA
:1013D8007B681B680A43DA623B681B68092B1CD9C7
:1013E8007B681B68D9683B681A6813465B0013441E
:1013F8001E3B072202FA03F3DB4319403B68986857
:101408003B681A6813465B0013441E3B00FA03F25C
:101418007B681B680A43DA6019E07B681B681969F6
:101428003B681A6813465B001344072202FA03F369
:10143800DB4319403B6898683B681A6813465B00B1
:10144800134400FA03F27B681B680A431A613B687D
:101458001B68102B03D03B681B68112B32D17B68AB
:101468001B681D4A934225D17B681B689B6803F45F
:101478000003002B26D17B681B689A687B681B6871
:1014880042F400029A603B681B68102B1AD1134B78
:101498001B68134AA2FB03239A0C13469B001344B0
:1014A8005B00BB6002E0BB68013BBB60BB68002B14
:1014B800F9D107E07B689B6A43F020027B689A6257
:1014C8000123FB737B68002283F82420FB7B1846EA
:1014D8001437BD4680BC704700240140A801002095
:1014E80083DE1B4380B584B000AF78600023FB60C7
:1014F8007B681B689B6803F00103012B27D17B687D
:101508001B689A687B681B6822F001029A60FFF7E3
:10151800DBFDF86014E0FFF7D7FD0246FB68D31A3D
:10152800022B0DD97B689B6A43F010027B689A6294
:101538007B68DB6A43F001027B68DA62012307E01B
:101548007B681B689B6803F00103012BE3D0002331
:1015580018461037BD4680BD80B485B000AF7860AE
:101568007B6803F00703FB600C4BDB68BB60BA6861
:101578004FF6FF031340BB60FB681A02BB681343B6
:1015880043F0BF6343F40033BB60044ABB68D360D5
:1015980000BF1437BD4680BC704700BF00ED00E0B7
:1015A80080B400AF044BDB681B0A03F0070318463E
:1015B800BD4680BC704700BF00ED00E080B483B03A
:1015C80000AF0346FB7197F90730002B0BDBFB7963
:1015D80003F01F02064997F907305B09012000FA5A
:1015E80002F241F8232000BF0C37BD4680BC70478B
:1015F80000E100E080B483B000AF03463960FB71BE
:1016080097F90730002B0ADB3B68DAB20C4997F9E7
:1016180007301201D2B20B4483F800230AE03B687A
:10162800DAB20849FB7903F00F03043B1201D2B286
:101638000B441A7600BF0C37BD4680BC704700BF0C
:1016480000E100E000ED00E080B489B000AFF86090
:10165800B9607A60FB6803F00703FB61FB69C3F1BB
:101668000703042B28BF0423BB61FB690433062B43
:1016780002D9FB69033B00E000237B614FF0FF3296
:10168800BB6902FA03F3DA43BB681A407B699A40E4
:101698004FF0FF317B6901FA03F3D9437B680B40B4
:1016A800134318462437BD4680BC704780B582B0C6
:1016B80000AF78607B68013BB3F1807F01D30123E1
:1016C8000FE00A4A7B68013B53600F214FF0FF305F
:1016D800FFF790FF054B00229A60044B07221A601F
:1016E800002318460837BD4680BD00BF10E000E063
:1016F80080B582B000AF78607868FFF72DFF00BF33
:101708000837BD4680BD80B586B000AF0346B960D6
:101718007A60FB7300237B61FFF742FF78617A6888
:10172800B9687869FFF790FF024697F90F301146BC
:101738001846FFF75FFF00BF1837BD4680BD80B56C
:1017480082B000AF0346FB7197F907301846FFF7E0
:1017580035FF00BF0837BD4680BD80B582B000AFF9
:1017680078607868FFF7A2FF034618460837BD4639
:1017780080BD000080B584B000AF78600023FB73A3
:101788007B6893F82130022B05D07B6804229A638A
:101798000123FB73D6E07B681B681A687B681B68AB
:1017A80022F00E021A607B681B681A687B681B6847
:1017B80022F001021A607B681B681A46644B9A4241
:1017C80058D97B681B68634A93424FD07B681B6873
:1017D800614A934248D07B681B68604A934240D074
:1017E8007B681B685E4A934238D07B681B685D4AF9
:1017F800934230D07B681B685B4A934228D07B6851
:101808001B68534A934220D07B681B68574A93420F
:1018180019D07B681B68564A934212D07B681B68B4
:10182800544A93420AD07B681B68534A934202D1B8
:101838004FF480531BE04FF4803318E04FF480736B
:1018480015E0102313E0012311E04FF080730EE040
:101858004FF480130BE04FF4803308E04FF48053CB
:1018680005E04FF4807302E0102300E00123434AAF
:10187800536057E07B681B68364A93424FD07B68B9
:101888001B68354A934248D07B681B68334A9342A9
:1018980040D07B681B68324A934238D07B681B680B
:1018A800304A934230D07B681B682F4A934228D035
:1018B8007B681B68264A934220D07B681B682B4AAA
:1018C800934219D07B681B68294A934212D07B68DF
:1018D8001B68284A93420AD07B681B68264A9342B1
:1018E80002D14FF480531BE04FF4803318E04FF4DB
:1018F800807315E0102313E0012311E04FF080738B
:101908000EE04FF480130BE04FF4803308E04FF4FF
:10191800805305E04FF4807302E0102300E00123B8
:10192800174A53607B68012283F821207B680022D4
:1019380083F820207B685B6B002B03D07B685B6B94
:1019480078689847FB7B18461037BD4680BD00BFB6
:1019580080000240080002401C00024030000240A3
:1019680044000240580002406C0002400804024053
:101978001C040240300402404404024000040240B7
:101988000000024080B48BB000AF7860396000235B
:101998007B6200233B6233E101227B6A02FA03F394
:1019A800FB613B681B68FA691340BB61BA69FB6954
:1019B8009A4240F022813B685B68122B34D0122B8C
:1019C8000DD8022B2BD0022B04D8002B31D0012BA1
:1019D8001CD048E0032B43D0112B1BD043E08F4A87
:1019E800934226D08D4A934206D88D4A934220D0FE
:1019F8008C4A93421DD036E08B4A934219D08B4AC9
:101A0800934216D08A4A934213D02CE03B68DB6895
:101A18003B6228E03B68DB6804333B6223E03B68B9
:101A2800DB6808333B621EE03B68DB680C333B62D3
:101A380019E03B689B68002B02D104233B6212E04B
:101A48003B689B68012B05D108233B627B68FA69D8
:101A58001A6108E008233B627B68FA695A6102E070
:101A680000233B6200BFBB69FF2B01D87B6801E004
:101A78007B6804337B61BB69FF2B02D87B6A9B00C0
:101A880002E07B6A083B9B003B617B691A680F2177
:101A98003B6901FA03F3DB431A40396A3B6901FAEF
:101AA80003F31A437B691A603B685B6803F0805351
:101AB800002B00F0A2805F4B9B695E4A43F0010354
:101AC80093615C4B9B6903F00103BB60BB685A4A96
:101AD8007B6A9B08023352F82330FB607B6A03F071
:101AE80003039B000F2202FA03F3DB43FA68134057
:101AF800FB607B68514A93421FD07B68504A9342EF
:101B080019D07B684F4A934213D07B684E4A934260
:101B18000DD07B684D4A934207D07B684C4A93426C
:101B280001D105230AE0062308E0042306E0032385
:101B380004E0022302E0012300E000237A6A02F0B5
:101B4800030292009340FA681343FB603A497B6AA8
:101B58009B080233FA6841F823203B685B6803F46A
:101B68008033002B06D03B4B1A683A49BB691343B4
:101B78000B6006E0374B1A68BB69DB4335491340F5
:101B88000B603B685B6803F40033002B06D0314BD5
:101B98005A683049BB6913434B6006E02D4B5A68BD
:101BA800BB69DB432B4913404B603B685B6803F41C
:101BB8008013002B06D0274B9A682649BB6913432C
:101BC8008B6006E0234B9A68BB69DB4321491340CD
:101BD8008B603B685B6803F40013002B06D01D4B39
:101BE800DA681C49BB691343CB6006E0194BDA6815
:101BF800BB69DB4317491340CB607B6A01337B62C7
:101C08003B681A687B6A22FA03F3002B7FF4C4AEA0
:101C180000BF2C37BD4680BC704700BF00002110B4
:101C280000001110000012100000311000003210E6
:101C3800000022100010024000000140000801408E
:101C4800000C014000100140001401400018014040
:101C5800001C01400004014080B485B000AF7860EA
:101C68000B467B807B689A687B881340002B02D0E8
:101C78000123FB7301E00023FB73FB7B1846143739
:101C8800BD4680BC704780B483B000AF78600B4617
:101C98007B8013467B707B78002B03D07A887B6827
:101CA8001A6103E07B881A047B681A6100BF0C374D
:101CB800BD4680BC704780B483B000AF78600B46E7
:101CC8007B807B68DA687B881340002B03D07A8896
:101CD8007B685A6102E07A887B681A6100BF0C371A
:101CE800BD4680BC7047000080B582B000AF034697
:101CF800FB80084B5A69FB881340002B06D0054A25
:101D0800FB885361FB88184608F09AFA00BF083729
:101D1800BD4680BD0004014080B400AF034B0122E2
:101D28001A6000BFBD4680BC704700BF20000E424D
:101D380080B586B000AF78607B68002B01D10123A5
:101D48006CE27B681B6803F00103002B00F08780BE
:101D5800924B5B6803F00C03042B0CD08F4B5B6831
:101D680003F00C03082B12D18C4B5B6803F480330F
:101D7800B3F5803F0BD1894B1B6803F40033002B6C
:101D88006CD07B685B68002B68D1012346E27B68D6
:101D98005B68B3F5803F06D1804B1B687F4A43F4EC
:101DA800803313602EE07B685B68002B0CD17B4B83
:101DB8001B687A4A23F480331360784B1B68774A90
:101DC80023F4802313601DE07B685B68B3F5A02FC4
:101DD8000CD1724B1B68714A43F4802313606F4B1C
:101DE8001B686E4A43F4803313600BE06B4B1B682F
:101DF8006A4A23F480331360684B1B68674A23F4EC
:101E0800802313607B685B68002B13D0FFF75CF9B5
:101E1800386108E0FFF758F902463B69D31A642B8A
:101E280001D90323FAE15D4B1B6803F40033002B4F
:101E3800F0D014E0FFF748F9386108E0FFF744F9FB
:101E480002463B69D31A642B01D90323E6E1534BBD
:101E58001B6803F40033002BF0D100E000BF7B685F
:101E68001B6803F00203002B63D04C4B5B6803F044
:101E78000C03002B0BD0494B5B6803F00C03082BB9
:101E88001CD1464B5B6803F48033002B16D1434BBF
:101E98001B6803F00203002B05D07B681B69012B2C
:101EA80001D00123BAE13D4B1B6823F0F8027B689F
:101EB8005B69DB00394913430B603AE07B681B69B7
:101EC800002B20D0364B01221A60FFF7FDF838614D
:101ED80008E0FFF7F9F802463B69D31A022B01D94B
:101EE80003239BE12D4B1B6803F00203002BF0D06A
:101EF8002A4B1B6823F0F8027B685B69DB002749E3
:101F080013430B6015E0264B00221A60FFF7DCF83C
:101F1800386108E0FFF7D8F802463B69D31A022B6C
:101F280001D903237AE11D4B1B6803F00203002B40
:101F3800F0D17B681B6803F00803002B3AD07B685C
:101F48009B69002B19D0174B01221A60FFF7BCF8C8
:101F5800386108E0FFF7B8F802463B69D31A022B4C
:101F680001D903235AE10D4B5B6A03F00203002BEE
:101F7800F0D0012000F0DAFA1CE00A4B00221A60C7
:101F8800FFF7A2F838610FE0FFF79EF802463B69B9
:101F9800D31A022B08D9032340E100BF00100240E6
:101FA80000004242800442429E4B5B6A03F00203F7
:101FB800002BE9D17B681B6803F00403002B00F0B9
:101FC800A6800023FB75974BDB6903F08053002B39
:101FD8000DD1944BDB69934A43F08053D361914B05
:101FE800DB6903F08053BB60BB680123FB758E4B34
:101FF8001B6803F48073002B18D18B4B1B688A4A2B
:1020080043F480731360FFF75FF8386108E0FFF767
:102018005BF802463B69D31A642B01D90323FDE020
:10202800814B1B6803F48073002BF0D07B68DB685E
:10203800012B06D17B4B1B6A7A4A43F001031362DA
:102048002DE07B68DB68002B0CD1764B1B6A754A48
:1020580023F001031362734B1B6A724A23F00403D3
:1020680013621CE07B68DB68052B0CD16D4B1B6A87
:102078006C4A43F0040313626A4B1B6A694A43F0D3
:10208800010313620BE0674B1B6A664A23F00103E6
:102098001362644B1B6A634A23F0040313627B6870
:1020A800DB68002B15D0FFF70FF838610AE0FFF75F
:1020B8000BF802463B69D31A41F28832934201D9A0
:1020C8000323ABE0574B1B6A03F00203002BEED04F
:1020D80014E0FEF7F9FF38610AE0FEF7F5FF024663
:1020E8003B69D31A41F28832934201D9032395E020
:1020F8004C4B1B6A03F00203002BEED1FB7D012B36
:1021080005D1484BDB69474A23F08053D3617B688C
:10211800DB69002B00F08180424B5B6803F00C0305
:10212800082B61D07B68DB69022B46D13F4B00222C
:102138001A60FEF7C9FF386108E0FEF7C5FF0246DE
:102148003B69D31A022B01D9032367E0354B1B687F
:1021580003F00073002BF0D17B681B6AB3F5803F56
:1021680008D1304B5B6823F400327B689B682D49AB
:1021780013434B602B4B5B6823F474127B68196A1A
:102188007B685B6A0B43274913434B60274B01224B
:102198001A60FEF799FF386108E0FEF795FF0246DE
:1021A8003B69D31A022B01D9032337E01D4B1B6867
:1021B80003F00073002BF0D02FE01C4B00221A60B4
:1021C800FEF782FF386108E0FEF77EFF02463B69B2
:1021D800D31A022B01D9032320E0124B1B6803F00A
:1021E8000073002BF0D118E07B68DB69012B01D16B
:1021F800012313E00B4B5B68FB60FB6803F4803240
:102208007B681B6A9A4206D1FB6803F470127B68EC
:102218005B6A9A4201D0012300E000231846183770
:10222800BD4680BD00100240007000406000424280
:1022380080B584B000AF786039607B68002B01D12D
:102248000123D0E06A4B1B6803F007033A689A42FF
:1022580010D9674B1B6823F0070265493B68134395
:102268000B60634B1B6803F007033A689A4201D07E
:102278000123B8E07B681B6803F00203002B20D021
:102288007B681B6803F00403002B05D0594B5B687F
:10229800584A43F4E06353607B681B6803F0080303
:1022A800002B05D0534B5B68524A43F4605353608C
:1022B800504B5B6823F0F0027B689B684D491343E1
:1022C8004B607B681B6803F00103002B40D07B68E0
:1022D8005B68012B07D1474B1B6803F40033002BC5
:1022E80015D101237FE07B685B68022B07D1414B46
:1022F8001B6803F00073002B09D1012373E03D4BE9
:102308001B6803F00203002B01D101236BE0394B5A
:102318005B6823F003027B685B68364913434B60B4
:10232800FEF7D2FEF8600AE0FEF7CEFE0246FB6832
:10233800D31A41F28832934201D9032353E02D4B3B
:102348005B6803F00C027B685B689B009A42EBD1E8
:10235800274B1B6803F007033A689A4210D2244BB4
:102368001B6823F0070222493B6813430B60204B8C
:102378001B6803F007033A689A4201D0012332E050
:102388007B681B6803F00403002B08D0194B5B68BB
:1023980023F4E0627B68DB68164913434B607B6873
:1023A8001B6803F00803002B09D0124B5B6823F469
:1023B80060527B681B69DB000E4913434B6000F0D9
:1023C80021F801460B4B5B681B0903F00F030A4A0F
:1023D800D35C21FA03F3094A1360094B1B681846BA
:1023E800FEF730FE002318461037BD4680BD00BFFB
:1023F8000020024000100240440A0108A801002001
:102408000000002090B48AB000AF2A4B3C1D0FCBCF
:1024180084E80F00284B1B883B800023FB610023C6
:10242800BB6100237B6200237B6100233B62234B5B
:102438005B68FB61FB6903F00C03042B02D0082BDB
:1024480003D02DE01E4B3B622DE0FB699B0C03F093
:102458000F0307F12802134413F8243C7B61FB693E
:1024680003F48033002B13D0144B5B685B0C03F030
:10247800010307F12802134413F8283CBB617B6968
:102488000F4A02FB03F2BB69B2FBF3F37B6204E081
:102498007B690C4A02FB03F37B627B6A3B6202E0C6
:1024A800074B3B6200BF3B6A18462837BD4690BCC5
:1024B800704700BF40F0000850F0000800100240CC
:1024C80000127A0000093D0080B400AF024B1B687F
:1024D8001846BD4680BC7047A801002080B500AFF3
:1024E800FFF7F2FF0146054B5B681B0A03F0070381
:1024F800034AD35C21FA03F3184680BD001002405A
:10250800540A010880B500AFFFF7DEFF0146054B0E
:102518005B68DB0A03F00703034AD35C21FA03F381
:10252800184680BD00100240540A010880B485B0E6
:1025380000AF78600A4B1B680A4AA2FB03235B0AB8
:102548007A6802FB03F3FB6000BFFB685A1EFA605F
:10255800002BF9D100BF1437BD4680BC704700BFBF
:10256800A8010020D34D621080B586B000AF786016
:1025780000233B610023FB607B681B6803F00103B9
:10258800002B7DD00023FB754F4BDB6903F0805394
:10259800002B0DD14C4BDB694B4A43F08053D36180
:1025A800494BDB6903F08053BB60BB680123FB75B3
:1025B800464B1B6803F48073002B18D1434B1B68F0
:1025C800424A43F480731360FEF77EFD386108E0E9
:1025D800FEF77AFD02463B69D31A642B01D903231F
:1025E8006DE03A4B1B6803F48073002BF0D0364B38
:1025F8001B6A03F44073FB60FB68002B2ED07B68DA
:102608005B6803F44073FA689A4227D02E4B1B6A22
:1026180023F44073FB602E4B01221A602C4B0022DE
:102628001A60294AFB681362FB6803F00103002B58
:1026380014D0FEF749FD38610AE0FEF745FD024671
:102648003B69D31A41F28832934201D9032336E019
:102658001D4B1B6A03F00203002BEED01A4B1B6ABA
:1026680023F440727B685B68174913430B62FB7D58
:10267800012B05D1144BDB69134A23F08053D36136
:102688007B681B6803F00203002B08D00E4B5B68C5
:1026980023F440427B689B680B4913434B607B687B
:1026A8001B6803F01003002B08D0074B5B6823F46A
:1026B80080027B685B69044913434B60002318461A
:1026C8001837BD4680BD00BF0010024000700040B2
:1026D8004004424290B58DB000AF78606B4B07F173
:1026E8000C040FCB84E80F00694B1B883B81002347
:1026F8007B620023FB6200233B620023FB61002313
:10270800BB627B68013B0F2B00F2B68001A252F836
:1027180023F000BFFF27000865280008812800086B
:10272800EF27000881280008812800088128000870
:10273800F727000881280008812800088128000858
:1027480081280008812800088128000881280008BD
:102758005D2700084F4B5B68FB614E4B1B6803F01D
:102768008073002B00F08A80FB699B0C03F00F0339
:1027780007F13002134413F8243C3B62FB6903F46D
:102788008033002B18D0434B5B685B0C03F00103CC
:1027980007F13002134413F8283C7B62FB6903F409
:1027A8008033002B0DD03C4A7B6AB2FBF3F23B6AC4
:1027B80002FB03F3FB6204E03B6A384A02FB03F3C3
:1027C800FB62344B5B6803F48003B3F5800F02D1DE
:1027D800FB6ABB6252E0FB6A5B00314AA2FB03233F
:1027E8005B08BB624AE0FFF70DFEB86249E0FFF7FD
:1027F80009FEB86245E0274B1B6AFB61FB6903F4DD
:102808004073B3F5807F08D1FB6903F00203002B06
:1028180003D04FF40043BB621FE0FB6903F440732D
:10282800B3F5007F09D11B4B5B6A03F00203002B51
:1028380003D049F64043BB620FE0FB6903F44073E1
:10284800B3F5407F1CD1134B1B6803F40033002BF6
:1028580016D04FF22443BB6212E011E0FFF752FE9C
:1028680002460C4B5B689B0B03F0030301335B00D0
:10287800B2FBF3F3BB6204E000BF02E000BF00E07C
:1028880000BFBB6A18463437BD4690BD54F00008F7
:1028980064F000080010024000127A0000093D00B0
:1028A800ABAAAAAA80B584B000AF78600023FB6009
:1028B8007B68002B01D1012384E07B685B7CDBB261
:1028C800002B05D17B6800221A7478680AF03EFC58
:1028D8007B6802225A74786800F0F4FA0346002BE9
:1028E80004D07B6804225A7401236BE0786800F0F6
:1028F800ADFB0346002B04D07B6804225A740123E5
:1029080060E07B681B685A687B681B6822F00702D6
:102918005A607B689B68002B05D02C4B1B6B2B4A9D
:1029280023F001031363294BDB6A23F460727B688D
:102938009B6826491343CB627B685B68B3F1FF3F12
:1029480003D07B685B68FB600EE00120FFF7C2FEE6
:10295800F860FB68002B04D17B6804225A740123B9
:1029680030E0FB68013BFB607B681B689B6823F0D9
:102978000F01FB681A0C7B681B680A439A607B6826
:102988001B68DB681B0C1B04FA6891B27A68126832
:102998000B43D360786800F081FB0346002B04D01A
:1029A8007B6804225A7401230CE07B680022DA73E6
:1029B8007B6801225A737B6801229A737B68012223
:1029C8005A74002318461037BD4680BD006C00407D
:1029D80090B587B000AFF860B9607A6000237B617A
:1029E80000233B61FB68002B02D0BB68002B01D1A0
:1029F800012380E0FB681B7C012B01D102237AE0D4
:102A0800FB6801221A74FB6802225A747B68002B47
:102A180013D1BB681B781A464FF4616303FB02F2BB
:102A2800BB685B7819460B461B015B1A9B00134475
:102A3800BA68927813447B611EE0BB681B7818461D
:102A480000F071FB03461A464FF4616303FB02F47E
:102A5800BB685B78184600F066FB03461A461346C7
:102A68001B019B1A9B001C44BB689B78184600F00E
:102A78005AFB034623447B617969F86800F07FFAC2
:102A88000346002B07D0FB6804225A74FB68002217
:102A98001A7401232FE0FB681B685A68FB681B68DF
:102AA80022F005025A60F86800F090FA38613B6934
:102AB800B3F1FF3F18D03A697B699A4214D23B6957
:102AC80003F5A83303F5C0733B613969F86800F072
:102AD80096FA0346002B07D0FB6804225A74FB6859
:102AE80000221A74012306E0FB6801225A74FB686D
:102AF80000221A74002318461C37BD4690BD0000FA
:102B080080B588B000AFF860B9607A600023BB6117
:102B18000023FB6100237B6100233B61FB68002BE2
:102B280002D0BB68002B01D10123B5E0FB681B680C
:102B38005B6803F00403002B01D00123ACE0F868C4
:102B480000F0EDF9B861BB69554AA2FB0323DB0A23
:102B58003B61BA69524BA3FB0213DB0A4FF4616174
:102B680001FB03F3D31A4F4AA2FB03235B09DAB232
:102B7800BB685A70BB694A4AA2FB0312D20A4FF4D7
:102B8800616101FB02F29A1A464BA3FB0213590931
:102B98000B461B015B1A9B00D11ACAB2BB689A701C
:102BA8003B69172B55D93B693F4AA2FB03231B09F5
:102BB8007B6139693C4BA3FB01231A0913465B006F
:102BC8001344DB00CA1AD2B2BB681A70F86800F066
:102BD800FDF9F861FB69B3F1FF3F08D0FA69BB69F9
:102BE8009A4204D9FA69BB69D31AFB6102E04FF033
:102BF800FF33FB617B692D4A02FB03F3BA69D31AE1
:102C0800BB61B969F86800F0BAF90346002B01D036
:102C1800012341E0FB69B3F1FF3F0CD0FA69BB69BE
:102C28001344FB61F969F86800F0E9F90346002BE1
:102C38000AD0012330E0F969F86800F0E0F90346AA
:102C4800002B01D0012327E07969F86800F088FAA1
:102C580003E03B69DAB2BB681A707B68002B1AD0B4
:102C6800BB681B78184600F041FA03461A46BB6851
:102C78001A70BB685B78184600F038FA03461A46A3
:102C8800BB685A70BB689B78184600F02FFA034659
:102C98001A46BB689A70002318462037BD4680BD87
:102CA800C5B3A29189888888ABAAAAAA80510100D5
:102CB80080B588B000AFF860B9607A600023FB6126
:102CC8000023BB6100237B61FB68002B02D0BB683B
:102CD800002B01D1012397E0FB681B7C012B01D15C
:102CE800022391E0FB6801221A74FB6802225A74DD
:102CF8007B68002B0CD1BB68DA78FB68DA73BB6899
:102D08005A78FB685A73BB689A78FB689A731AE01A
:102D1800BB68DB78184600F006FA03461A46FB68DB
:102D2800DA73BB685B78184600F0FDF903461A466B
:102D3800FB685A73BB689B78184600F0F4F90346A1
:102D48001A46FB689A73FB68DB7B1846FB68597B5D
:102D5800FB689B7B1A4600F0DFFA03461A46FB68BD
:102D68001A73FB681A7BBB681A70F86800F0D7F80A
:102D7800F861FB69264AA2FB0323DB0A7B617B69B6
:102D8800182B3AD97B69234AA2FB03231B09224A41
:102D980002FB03F3FA69D31AFB61F969F86800F0DA
:102DA800EEF80346002B07D0FB6804225A74FB6830
:102DB80000221A74012327E0F86800F007F9B861C7
:102DC800BB69B3F1FF3F18D0BA69FB699A4214D2C4
:102DD800BB6903F5A83303F5C073BB61B969F8682B
:102DE80000F00DF90346002B07D0FB6804225A7443
:102DF800FB6800221A74012306E0FB6801225A745A
:102E0800FB6800221A74002318462037BD4680BD8F
:102E1800C5B3A291ABAAAAAA8051010080B586B019
:102E280000AFF860B9607A6007F1140300210A4620
:102E38001A800A469A70FB68002B02D0BB68002BE8
:102E480001D101233AE007F1140300221946F8687A
:102E5800FFF756FE0346002B01D001232EE0FB6846
:102E68001A7BBB681A70FB68DA7BBB68DA70FB6890
:102E78005A7BBB685A70FB689A7BBB689A707B6800
:102E8800002B1AD0BB68DB78184600F02FF90346F0
:102E98001A46BB68DA70BB685B78184600F026F9FA
:102EA80003461A46BB685A70BB689B78184600F000
:102EB8001DF903461A46BB689A700023184618374E
:102EC800BD4680BD80B584B000AF78600023FB604C
:102ED8007B68002B01D101231DE07B681B685A68C1
:102EE8007B681B6822F008025A60FEF7EDF8F8606C
:102EF80009E0FEF7E9F80246FB68D31AB3F57A7FD2
:102F080001D9032307E07B681B685B6803F00803AB
:102F1800002BEED0002318461037BD4680BD80B484
:102F280087B000AF786000237B8200233B820023B8
:102F3800FB8100237B617B681B689B697B827B68C4
:102F48001B68DB69FB817B681B689B693B827A8A0B
:102F58003B8A9A4208D03B8A1A047B681B68DB6963
:102F68009BB213437B6104E07B8A1A04FB891343F9
:102F78007B617B6918461C37BD4680BC704780B5AD
:102F880084B000AF786039600023FB73786800F084
:102F98005DF80346002B02D00123FB7311E07B6828
:102FA8001B683A68120C9A617B681B683A6892B28F
:102FB800DA61786800F072F80346002B01D001232B
:102FC800FB73FB7B18461037BD4680BD80B485B0C7
:102FD80000AF78600023FB810023BB817B681B68FE
:102FE8001B6AFB817B681B685B6ABB81FB891A04CF
:102FF800BB89134318461437BD4680BC704780B55B
:1030080084B000AF786039600023FB73786800F003
:103018001DF80346002B02D00123FB7311E07B68E7
:103028001B683A68120C1A627B681B683A6892B28D
:103038005A62786800F032F80346002B01D0012369
:10304800FB73FB7B18461037BD4680BD80B584B046
:1030580000AF78600023FB60FEF736F8F86009E0FF
:10306800FEF732F80246FB68D31AB3F57A7F01D926
:1030780003230FE07B681B685B6803F02003002BC9
:10308800EED07B681B685A687B681B6842F01002A8
:103098005A60002318461037BD4680BD80B584B0FD
:1030A80000AF78600023FB607B681B685A687B6808
:1030B8001B6822F010025A60FEF706F8F86009E073
:1030C800FEF702F80246FB68D31AB3F57A7F01D9F6
:1030D800032307E07B681B685B6803F02003002B71
:1030E800EED0002318461037BD4680BD80B485B0A9
:1030F80000AF0346FB710023FB6005E0FB6801336A
:10310800FB60FB790A3BFB71FB79092BF6D8FB685E
:10311800DBB21B01DAB2FB791343DBB21846143772
:10312800BD4680BC704780B485B000AF0346FB71D4
:103138000023FB60FB791B09DBB21A4613469B0090
:1031480013445B00FB60FB7903F00F03DAB2FB6802
:10315800DBB21344DBB218461437BD4680BC704757
:1031680080B586B000AF7860396000237B610023AA
:103178003B610023FB600023BB607B68DB7B7B61DA
:103188007B685B7B3B617B689B7BFB600023BB6050
:103198006FE03B69012B11D03B69032B0ED03B69D3
:1031A800052B0BD03B69072B08D03B69082B05D0B2
:1031B8003B690A2B02D03B690C2B17D1FB681E2BED
:1031C80003D8FB680133FB6050E03B690C2B05D04A
:1031D8003B6901333B610123FB6047E001233B610D
:1031E8000123FB607B6901337B613FE03B69042B72
:1031F80008D03B69062B05D03B69092B02D03B69F7
:103208000B2B0CD1FB681D2B03D8FB680133FB602B
:103218002CE03B6901333B610123FB6026E03B69FD
:10322800022B23D1FB681B2B03D8FB680133FB60FF
:103238001CE0FB681C2B11D17B699BB2184600F07F
:1032480039F80346002B03D0FB680133FB600DE01F
:103258003B6901333B610123FB6007E0FB681D2BE1
:1032680004D13B6901333B610123FB60BB68013337
:10327800BB60BA683B689A428BD37B69DAB27B68D9
:10328800DA733B69DAB27B685A73FB68DAB27B6837
:103298009A733B69DBB2FA68D2B21946786900F0D2
:1032A8003BF803461A467B681A7300BF1837BD46B9
:1032B80080BD000080B483B000AF0346FB80FB886C
:1032C80003F003039BB2002B01D000231DE0FB8811
:1032D800104AA2FB03125209642101FB02F29B1A55
:1032E8009BB2002B01D001230FE0FB88094AA2FB07
:1032F8000312D2094FF4C87101FB02F29B1A9BB268
:10330800002B01D1012300E0002318460C37BD46ED
:1033180080BC70471F85EB5180B485B000AF7860E2
:103328000B46FB701346BB700023BB600023FB6099
:103338007B6803F5FA63BB60FB78022B2DD8FA781B
:1033480013465B001344DB009B1A2C4AA2FB0323A1
:103358005A08BB781A44BB681A44BB68013B9B08EF
:103368001A44BB68013B2649A1FB03135B09D21A27
:10337800BB68013B2249A1FB0313DB0913441A1D57
:10338800204BA3FB0213D11A49080B4499080B469A
:10339800DB005B1AD31AFB6029E0FA7813465B005E
:1033A8001344DB009B1A154AA2FB03235A08BB7877
:1033B8001A44BB681A44BB689B081A44BB68104986
:1033C800A1FB03135B09D21ABB680D49A1FB0313C8
:1033D800DB0913449A1C0B4BA3FB0213D11A4908AF
:1033E8000B4499080B46DB005B1AD31AFB60FB6899
:1033F800DBB218461437BD4680BC7047398EE338B7
:103408001F85EB512549922480B582B000AF7860C2
:103418007B68002B01D101231DE07B6893F83D30C8
:10342800DBB2002B06D17B68002283F83C20786849
:1034380009F0F4FF7B68022283F83D207B681A6854
:103448007B6804331946104600F08AFA7B6801222B
:1034580083F83D20002318460837BD4680BD80B458
:1034680085B000AF78607B681B68DA687B681B688A
:1034780042F00102DA607B681B689B6803F007036F
:10348800FB60FB68062B07D07B681B681A687B68A3
:103498001B6842F001021A60002318461437BD4623
:1034A80080BC704780B582B000AF78607B681B68CD
:1034B8001B6903F00203022B22D17B681B68DB68BF
:1034C80003F00203022B1BD17B681B686FF002021A
:1034D8001A617B6801221A777B681B689B6903F075
:1034E8000303002B03D0786800F01FFA05E0786822
:1034F80000F012FA786800F021FA7B6800221A7747
:103508007B681B681B6903F00403042B22D17B68CA
:103518001B68DB6803F00403042B1BD17B681B6862
:103528006FF004021A617B6802221A777B681B68B5
:103538009B6903F44073002B03D0786800F0F5F919
:1035480005E0786800F0E8F9786800F0F7F97B683A
:1035580000221A777B681B681B6903F00803082B95
:1035680022D17B681B68DB6803F00803082B1BD19A
:103578007B681B686FF008021A617B6804221A775F
:103588007B681B68DB6903F00303002B03D07868B2
:1035980000F0CBF905E0786800F0BEF9786800F033
:1035A800CDF97B6800221A777B681B681B6903F0DA
:1035B8001003102B22D17B681B68DB6803F0100313
:1035C800102B1BD17B681B686FF010021A617B6897
:1035D80008221A777B681B68DB6903F44073002BA9
:1035E80003D0786800F0A1F905E0786800F094F954
:1035F800786800F0A3F97B6800221A777B681B685B
:103608001B6903F00103012B0ED17B681B68DB6883
:1036180003F00103012B07D17B681B686FF00102DF
:103628001A61786800F0FEF87B681B681B6903F074
:103638008003802B0ED17B681B68DB6803F0800356
:10364800802B07D17B681B686FF080021A6178684D
:1036580000F0E3FA7B681B681B6903F04003402B0A
:103668000ED17B681B68DB6803F04003402B07D151
:103678007B681B686FF040021A61786800F067F990
:103688007B681B681B6903F02003202B0ED17B6825
:103698001B68DB6803F02003202B07D17B681B68BD
:1036A8006FF020021A61786800F0AEFA00BF0837A0
:1036B800BD4680BD80B584B000AF786039607B6856
:1036C80093F83C30012B01D10223A6E07B6801224C
:1036D80083F83C207B68022283F83D207B681B68C6
:1036E8009B68FB60FB6823F07703FB60FB6823F4AF
:1036F8007F43FB607B681B68FA689A603B681B68BD
:10370800402B67D0402B0BD8102B73D0102B02D82E
:10371800002B6FD078E0202B6CD0302B6AD073E070
:10372800702B0DD0702B04D8502B33D0602B41D088
:103738006AE0B3F5805F66D0B3F5005F17D063E049
:103748007B6818683B6899683B685A683B68DB681F
:1037580000F0F7F97B681B689B68FB60FB6843F027
:103768007703FB607B681B68FA689A604CE07B68AB
:1037780018683B6899683B685A683B68DB6800F0E2
:10378800E0F97B681B689A687B681B6842F4804292
:103798009A6039E07B6818683B6859683B68DB6861
:1037A8001A4600F057F97B681B685021184600F04C
:1037B800AEF929E07B6818683B6859683B68DB68A4
:1037C8001A4600F075F97B681B686021184600F0FE
:1037D8009EF919E07B6818683B6859683B68DB68A4
:1037E8001A4600F037F97B681B684021184600F03C
:1037F8008EF909E07B681A683B681B681946104611
:1038080000F085F900E000BF7B68012283F83D20C5
:103818007B68002283F83C20002318461037BD46F9
:1038280080BD000080B485B000AF78600023FB73D2
:1038380067E0FB7B374A9B0013445B78002B0DD174
:10384800FB7B344A9B0013449B78002B06D1FB7BFF
:10385800304A9B001344DB78002B4FD0FB7B2D4A6A
:103868009B001344DB78002B0DD0FB7B294A9B007F
:103878001344DA78FB7B013AD1B2264A9B00134401
:103888000A46DA703AE0FB7B224A9B001344DB7855
:10389800002B33D1FB7B1F4A9B0013449B78002BE2
:1038A80013D0FB7B1B4A9B0013449A78FB7B013A9D
:1038B800D1B2184A9B0013440A469A70FB7B154AFA
:1038C8009B0013443B22DA7018E0FB7B114A9B00F3
:1038D80013445A78FB7B013AD1B20E4A9B00134439
:1038E8000A465A70FB7B0B4A9B0013443B229A7092
:1038F800FB7B084A9B0013443B22DA70FB7B0133B5
:10390800FB73FB7B092B94D900BF1437BD4680BCE1
:10391800704700BF5C08002080B483B000AF7860B7
:1039280000BF0C37BD4680BC704780B483B000AF81
:10393800786000BF0C37BD4680BC704780B483B048
:1039480000AF786000BF0C37BD4680BC704780B4BC
:1039580083B000AF786000BF0C37BD4680BC7047AD
:1039680080B485B000AF786039607B681B68FB6005
:103978007B68334A934213D07B68324A93420FD014
:103988007B68B3F1804F0BD07B682F4A934207D0F6
:103998007B682E4A934203D07B682D4A934208D114
:1039A800FB6823F07003FB603B685B68FA681343AD
:1039B800FB607B68224A934213D07B68214A93427A
:1039C8000FD07B68B3F1804F0BD07B681E4A9342BF
:1039D80007D07B681D4A934203D07B681C4A9342F8
:1039E80008D1FB6823F44073FB603B68DB68FA6826
:1039F8001343FB60FB6823F080023B685B69134359
:103A0800FB607B68FA681A603B689A687B68DA62D0
:103A18003B681A687B689A627B68094A934203D0BC
:103A28007B68084A934203D13B681A697B681A632A
:103A38007B6801225A6100BF1437BD4680BC7047BD
:103A4800002C014000340140000400400008004000
:103A5800000C004080B487B000AFF860B9607A60AD
:103A6800FB681B6A7B61FB681B6A23F00102FB6829
:103A78001A62FB689B693B613B6923F0F0033B6179
:103A88007B681B013A6913433B617B6923F00A0396
:103A98007B617A69BB6813437B61FB683A699A6109
:103AA800FB687A691A6200BF1C37BD4680BC704744
:103AB80080B487B000AFF860B9607A60FB681B6AB1
:103AC80023F01002FB681A62FB689B697B61FB6844
:103AD8001B6A3B617B6923F470437B617B681B0332
:103AE8007A6913437B613B6923F0A0033B61BB68A0
:103AF8001B013A6913433B61FB687A699A61FB6869
:103B08003A691A6200BF1C37BD4680BC704780B452
:103B180085B000AF786039607B689B68FB60FB68A4
:103B280023F07003FB603A68FB68134343F0070314
:103B3800FB607B68FA689A6000BF1437BD4680BC9A
:103B4800704780B487B000AFF860B9607A603B60B6
:103B5800FB689B687B617B6923F47F437B613B68DF
:103B68001A027B681A43BB6813437A6913437B6163
:103B7800FB687A699A6000BF1C37BD4680BC7047F5
:103B880080B485B000AF786039607B6893F83C30CA
:103B9800012B01D1022332E07B68012283F83C200B
:103BA8007B68022283F83D207B681B685B68FB60AA
:103BB8007B681B689B68BB60FB6823F07003FB6035
:103BC8003B681B68FA681343FB60BB6823F08003FB
:103BD800BB603B685B68BA681343BB607B681B6863
:103BE800FA685A607B681B68BA689A607B68012229
:103BF80083F83D207B68002283F83C200023184688
:103C08001437BD4680BC704780B483B000AF78607D
:103C180000BF0C37BD4680BC704780B483B000AF8E
:103C2800786000BF0C37BD4680BC704780B582B055
:103C380000AF78607B68002B01D101233FE07B68EF
:103C480093F83930DBB2002B06D17B68002283F869
:103C58003820786809F032FC7B68242283F8392000
:103C68007B681B68DA687B681B6822F40052DA609C
:103C7800786800F08DFB7B681B681A697B681B6895
:103C880022F490421A617B681B685A697B681B683A
:103C980022F02A025A617B681B68DA687B681B6815
:103CA80042F40052DA607B680022DA637B682022E3
:103CB80083F839207B68202283F83A2000231846AD
:103CC8000837BD4680BD80B588B002AFF860B960DE
:103CD8003B601346FB8000237B61FB6893F8393017
:103CE800DBB2202B40F08380BB68002B02D0FB881E
:103CF800002B01D101237BE0FB6893F83830012BBE
:103D080001D1022374E0FB68012283F83820FB68A4
:103D18000022DA63FB68212283F83920FDF7D4F901
:103D28007861FB68FA889A84FB68FA88DA8442E04A
:103D3800FB68DB8C9BB2013B9AB2FB68DA84FB68B8
:103D48009B68B3F5805F22D13B6800937B690022B2
:103D58008021F86800F0B2F90346002B01D0032354
:103D680046E0BB683B613B691B881A46FB681B68D9
:103D7800C2F308025A60FB681B69002B03D1BB68B9
:103D88000233BB6017E0BB680133BB6013E03B68DC
:103D980000937B6900228021F86800F08FF90346C0
:103DA800002B01D0032323E0BB685A1CBA601A78A1
:103DB800FB681B685A60FB68DB8C9BB2002BB7D191
:103DC8003B6800937B6900224021F86800F076F98F
:103DD8000346002B01D003230AE0FB68202283F866
:103DE8003920FB68002283F83820002300E00223F2
:103DF80018461837BD4680BD80B485B000AFF8605E
:103E0800B9601346FB80FB6893F83A30DBB2202B8D
:103E180040D1BB68002B02D0FB88002B01D10123C5
:103E280039E0FB6893F83830012B01D1022332E0E6
:103E3800FB68012283F83820FB68BA689A62FB683D
:103E4800FA889A85FB68FA88DA85FB680022DA63C3
:103E5800FB68222283F83A20FB68002283F8382086
:103E6800FB681B68DA68FB681B6842F48072DA60DA
:103E7800FB681B685A69FB681B6842F001025A61BB
:103E8800FB681B68DA68FB681B6842F02002DA608E
:103E9800002300E0022318461437BD4680BC704753
:103EA80080B588B000AF78607B681B681B68FB61D1
:103EB8007B681B68DB68BB617B681B685B697B612F
:103EC80000233B610023FB60FB6903F00F033B61A8
:103ED8003B69002B0DD1FB6903F02003002B08D0B0
:103EE800BB6903F02003002B03D0786800F0CEF9FB
:103EF800CCE03B69002B00F0AB807B6903F0010349
:103F0800002B05D1BB6903F49073002B00F0A0804F
:103F1800FB6903F00103002B0AD0BB6903F480732B
:103F2800002B05D07B68DB6B43F001027B68DA630A
:103F3800FB6903F00403002B0AD07B6903F001033B
:103F4800002B05D07B68DB6B43F002027B68DA63E9
:103F5800FB6903F00203002B0AD07B6903F001031D
:103F6800002B05D07B68DB6B43F004027B68DA63C7
:103F7800FB6903F00803002B0AD07B6903F00103F7
:103F8800002B05D07B68DB6B43F008027B68DA63A3
:103F98007B68DB6B002B78D0FB6903F02003002BD8
:103FA80007D0BB6903F02003002B02D0786800F02B
:103FB8006DF97B681B685B6903F04003002B14BF35
:103FC80001230023DBB2FB607B68DB6B03F0080393
:103FD800002B02D1FB68002B31D0786800F0B8F8CC
:103FE8007B681B685B6903F04003002B23D07B6868
:103FF8001B685A697B681B6822F040025A617B681B
:104008005B6B002B13D07B685B6B224A5A637B681F
:104018005B6B1846FDF7AEFB0346002B16D07B689A
:104028005B6B5B6B7A68526B104698470EE078685A
:1040380000F03BF80AE0786800F037F806E07868A6
:1040480000F033F87B680022DA631EE000BF1CE052
:10405800FB6903F08003002B08D0BB6903F08003E1
:10406800002B03D0786800F0A4F80FE0FB6903F098
:104078004003002B0AD0BB6903F04003002B05D096
:10408800786800F0EBF800BF00E000BF2037BD46BD
:1040980080BD00BF9341000880B483B000AF786052
:1040A80000BF0C37BD4680BC704780B483B000AFFA
:1040B800786000BF0C37BD4680BC704780B584B0BF
:1040C80000AFF860B9603B601346FB712CE0BB6938
:1040D800B3F1FF3F28D0BB69002B07D0FCF7F4FFF2
:1040E80002463B68D31ABA699A421DD2FB681B681C
:1040F800DA68FB681B6822F4D072DA60FB681B6818
:104108005A69FB681B6822F001025A61FB68202289
:1041180083F83920FB68202283F83A20FB680022C4
:1041280083F8382003230FE0FB681B681A68BB6814
:104138001340BA689A420CBF01230023DBB21A4627
:10414800FB799A42C3D0002318461037BD4680BD7C
:1041580080B483B000AF78607B681B68DA687B68DE
:104168001B6822F49072DA607B681B685A697B6866
:104178001B6822F001025A617B68202283F83A20EA
:1041880000BF0C37BD4680BC704780B584B000AF17
:1041980078607B685B6AFB60FB680022DA85FB68F5
:1041A8000022DA84F868FFF780FF00BF1037BD46A9
:1041B80080BD80B485B000AF78607B6893F83930F3
:1041C800DBB2212B44D17B689B68B3F5805F1AD1A1
:1041D8007B681B6AFB60FB681B881A467B681B6848
:1041E800C2F308025A607B681B69002B05D17B6803
:1041F8001B6A9A1C7B681A620EE07B681B6A5A1C51
:104208007B681A6208E07B681B6A591C7A6811622D
:104218001A787B681B685A607B68DB8C9BB2013B11
:104228009BB27A681946D184002B0FD17B681B6832
:10423800DA687B681B6822F08002DA607B681B689A
:10424800DA687B681B6842F04002DA60002300E00D
:10425800022318461437BD4680BC704780B582B02B
:1042680000AF78607B681B68DA687B681B6822F09F
:104278004002DA607B68202283F839207868FFF7EB
:104288000BFF002318460837BD4680BD80B584B0B3
:1042980000AF78607B6893F83A30DBB2222B71D19B
:1042A8007B689B68B3F5805F23D17B689B6AFB6062
:1042B8007B681B69002B0ED17B681B685B689BB20F
:1042C800C3F308039AB2FB681A807B689B6A9A1C3E
:1042D8007B689A6229E07B681B685B689BB2DBB2EB
:1042E8009AB2FB681A807B689B6A5A1C7B689A6240
:1042F8001BE07B681B69002B0AD17B681B68586828
:104308007B689B6A591C7A689162C2B21A700CE089
:104318007B681B685B68DAB27B689B6A581C7968A3
:10432800886202F07F02D2B21A707B68DB8D9BB282
:10433800013B9BB27A681946D185002B20D17B6856
:104348001B68DA687B681B6822F02002DA607B68E9
:104358001B68DA687B681B6822F48072DA607B6805
:104368001B685A697B681B6822F001025A617B68E6
:10437800202283F83A20786805F0ACFF002302E099
:10438800002300E0022318461037BD4680BD000018
:1043980080B584B000AF78607B681B681B6923F424
:1043A80040517B68DA687B681B680A431A617B683E
:1043B8009A687B681B691A437B685B691343FB60D7
:1043C8007B681B68DB6823F4B05323F00C037A681E
:1043D8001268F9680B43D3607B681B685B6923F438
:1043E80040717B689A697B681B680A435A617B68DD
:1043F8001B68524A93424ED1FEF784F8B860BA68F7
:1044080013469B0013449A001A447B685B689B0020
:10441800B2FBF3F34A4AA2FB03235B091901BA680A
:1044280013469B0013449A001A447B685B689B0000
:10443800B2FBF3F2424BA3FB02035B09642000FBCF
:1044480003F3D31A1B0132333D4AA2FB03235B0952
:1044580003F0F0031944BA6813469B0013449A000A
:104468001A447B685B689B00B2FBF3F2344BA3FBF6
:1044780002035B09642000FB03F3D31A1B013233E8
:104488002F4AA2FB03235B0903F00F027B681B681A
:104498000A449A604DE0FEF721F8B860BA681346FE
:1044A8009B0013449A001A447B685B689B00B2FB2C
:1044B800F3F3234AA2FB03235B091901BA681346E5
:1044C8009B0013449A001A447B685B689B00B2FB0C
:1044D800F3F21B4BA3FB02035B09642000FB03F30D
:1044E800D31A1B013233164AA2FB03235B0903F0DC
:1044F800F0031944BA6813469B0013449A001A44FF
:104508007B685B689B00B2FBF3F20D4BA3FB0203D5
:104518005B09642000FB03F3D31A1B013233084AFA
:10452800A2FB03235B0903F00F027B681B680A44A4
:104538009A6000BF1037BD4680BD00BF00380140FB
:104548001F85EB5180B584B000AF3B1D00221A6077
:104558005A609A60184B194A1A60174B00229A60E1
:10456800154B00221A73144B00221A75124B4FF484
:104578006022DA61104B00225A600F4B01221A6147
:104588000D48FCF7CDFD0346002B01D008F08EFD49
:1045980001237B600123BB600023FB603B1D1946A0
:1045A8000548FCF7A7FE0346002B01D008F07EFD66
:1045B80000BF1037BD4680BD14080020002401400C
:1045C80080B588B000AF786007F1100300221A6048
:1045D8005A609A60DA607B681B68144A934221D15A
:1045E800134B9B69124A43F400739361104B9B6908
:1045F80003F40073FB60FB680D4B9B690C4A43F0A6
:10460800040393610A4B9B6903F00403BB60BB6816
:1046180002233B6103237B6107F110031946054818
:10462800FDF7B0F900BF2037BD4680BD002401402A
:10463800001002400008014080B588B000AF07F1C3
:10464800100300221A605A609A60DA60464B9B6930
:10465800454A43F020039361434B9B6903F02003D1
:10466800FB60FB68404B9B693F4A43F0040393613E
:104678003D4B9B6903F00403BB60BB683A4B9B69E5
:10468800394A43F010039361374B9B6903F01003D9
:104698007B607B6800224FF480713448FDF7F3FAA1
:1046A800002204213248FDF7EEFA01233B61314B29
:1046B8007B610223BB6107F1100319462B48FDF704
:1046C80061F920233B612C4B7B610123BB6107F11E
:1046D800100319462948FDF755F94FF480733B61DB
:1046E80001237B610023BB610223FB6107F11003F7
:1046F80019461E48FDF746F94FF400433B611E4B2F
:104708007B610123BB6107F1100319461748FDF7C8
:1047180039F904233B6101237B610023BB61022338
:10472800FB6107F1100319461148FDF72BF9002228
:1047380001210620FCF7E7FF0620FDF700F800221C
:1047480001211720FCF7DFFF1720FCF7F8FF0022F4
:1047580001212820FCF7D7FF2820FCF7F0FF00BF35
:104768002037BD4680BD00BF001002400008014050
:104778000014014000001110000021100010014039
:1047880080B483B000AF0346FB800D4B4FF48072BA
:104798005A610B4B4FF400725A610A4AFB88D36086
:1047A800074B80225A61064B80221A61044B4FF452
:1047B80000721A6100BF0C37BD4680BC704700BF4D
:1047C80000100140000C014080B483B000AF0346E4
:1047D800FB800D4B4FF480721A610B4B4FF4007243
:1047E8005A610A4AFB88D360074B80225A61064BFC
:1047F80080221A61044B4FF400721A6100BF0C3713
:10480800BD4680BC704700BF00100140000C01404D
:1048180080B582B000AF1D4B4FF088321A601B4B39
:104828004FF088325A60194B0022DA60184B4FF467
:1048380080721A61164B4FF400725A61144B402271
:104848005A61144B9B8848F68912934202D1012081
:10485800FCF744FC0D4B9B68FB800D4B40221A6112
:104868000B4B4FF400721A61084B4FF033321A6049
:10487800064B4FF033325A60044B4FF6FF72DA6042
:10488800FB8818460837BD4680BD00BF000C0140B4
:10489800001001404408002080B582B000AF0346F4
:1048A8000A46FB801346BB80FB881846FFF768FF63
:1048B8000C4B4FF480721A610A4B4FF400725A6124
:1048C800094ABB88D360074B80225A61054B802276
:1048D8001A61044B4FF400721A6100BF0837BD46D5
:1048E80080BD00BF00100140000C014080B582B0BF
:1048F80000AF0346FB80FB881846FFF741FFFFF730
:1049080087FF034618460837BD4680BD80B500AF0F
:10491800034B1B891846FFF733FF00BF80BD00BF5C
:104928004408002080B582B000AF03460A46FB80E9
:104938001346BB80734B9B8849F24132934205D0A2
:10494800704B9B8845F21032934264D16D4B5B8962
:104958001846FFF715FF6C4B4FF480721A616A4BCB
:104968004FF400725A61FB881B0A9AB2674BDA60EF
:10497800654B80225A61644B80221A61624B4FF466
:1049880000721A61604B4FF480721A615E4B4FF4EB
:1049980000725A61FB885D4ADBB2D3605A4B8022B1
:1049A8005A61594B80221A61574B4FF400721A61B1
:1049B800544B9B891846FFF7E3FE534B4FF4807224
:1049C8001A61514B4FF400725A61BB881B0A9AB2A4
:1049D8004E4BDA604C4B80225A614B4B80221A6155
:1049E800494B4FF400721A61474B4FF480721A61B9
:1049F800454B4FF400725A61BB88444ADBB2D3601E
:104A0800414B80225A61404B80221A613E4B4FF441
:104A180000721A6148E23B4B9B8846F604029342B7
:104A280076D1384B9B79012B06D1364B1A88FB88F7
:104A3800D31A9BB2013BFB80324B5B891846FFF7C8
:104A48009FFE314B4FF480721A612F4B4FF4007266
:104A58005A61FB881B0A9AB22C4BDA602A4B8022D7
:104A68005A61294B80221A61274B4FF400721A6150
:104A7800254B4FF480721A61234B4FF400725A6130
:104A8800FB88224ADBB2D3601F4B80225A611E4B3F
:104A980080221A611C4B4FF400721A61194B9B89D2
:104AA8001846FFF76DFE184B4FF480721A61164BCB
:104AB8004FF400725A61BB881B0A9AB2134BDA6032
:104AC800114B80225A61104B80221A610E4B4FF411
:104AD80000721A610C4B4FF480721A610A4B4FF442
:104AE80000725A61BB88094ADBB2D360064B802248
:104AF8005A61054B80221A61034B4FF400721A6108
:104B0800D2E100BF4408002000100140000C014021
:104B1800994B9B8841F66312934240F03381964B40
:104B28009B79002B63D1944B1A88FB88D31A9BB2CC
:104B3800013BFB80904B5B891846FFF721FE8F4BAA
:104B48004FF480721A618D4B4FF400725A618C4B8E
:104B58000022DA60894B80225A61884B80221A61D0
:104B6800864B4FF400721A61844B4FF480721A61BD
:104B7800824B4FF400725A61814B0022DA607F4BFE
:104B880080225A617D4B80221A617C4B4FF400725F
:104B98001A617A4B4FF480721A61784B4FF40072A5
:104BA8005A61FB881B0A9AB2754BDA60734B8022F4
:104BB8005A61724B80221A61704B4FF400721A616D
:104BC8006E4B4FF480721A616C4B4FF400725A614D
:104BD800FB886B4ADBB2D360684B80225A61674B13
:104BE80080221A61654B4FF400721A6161E0624BD2
:104BF8005B891846FFF7C4FD604B4FF480721A6159
:104C08005E4B4FF400725A61FB881B0A9AB25C4BE8
:104C1800DA605A4B80225A61584B80221A61574BEE
:104C28004FF400721A61554B4FF480721A61534B5E
:104C38004FF400725A61FB88514ADBB2D3604F4B84
:104C480080225A614D4B80221A614C4B4FF40072FE
:104C58001A614A4B4FF480721A61484B4FF4007244
:104C68005A61454B1B88013B1A12454BDA60434B8E
:104C780080225A61414B80221A61404B4FF40072E6
:104C88001A613E4B4FF480721A613C4B4FF400722C
:104C98005A61394B1B88013B394ADBB2D360374B29
:104CA80080225A61354B80221A61344B4FF40072CE
:104CB8001A61314B9B891846FFF762FD2F4B4FF461
:104CC80080721A612D4B4FF400725A61BB881B0A1F
:104CD8009AB22B4BDA60294B80225A61274B8022EB
:104CE8001A61264B4FF400721A61244B4FF48072FC
:104CF8001A61224B4FF400725A61BB88204ADBB21A
:104D0800D3601E4B80225A611C4B80221A611B4BB8
:104D18004FF400721A61194B4FF480721A61174BE5
:104D28004FF400725A61144B5B88013B1A12144B02
:104D3800DA60124B80225A61104B80221A610F4BA5
:104D48004FF400721A610D4B4FF480721A610B4BCD
:104D58004FF400725A61084B5B88013B084ADBB28A
:104D6800D360064B80225A61044B80221A61034BA0
:104D78004FF400721A6197E04408002000100140C7
:104D8800000C01404A4B9B8845F21052934272D165
:104D9800474B5B891846FFF7F3FC464B4FF480728C
:104DA8001A61444B4FF400725A61FB881B0A9AB28D
:104DB800414BDA603F4B80225A613E4B80221A6198
:104DC8003C4B4FF400721A61394B5B8901339BB23B
:104DD8001846FFF7D5FC374B4FF480721A61354BF4
:104DE8004FF400725A61FB88334ADBB2D360314B0F
:104DF80080225A612F4B80221A612E4B4FF4007289
:104E08001A612B4B9B891846FFF7BAFC294B4FF4C4
:104E180080721A61274B4FF400725A61BB881B0AD3
:104E28009AB2254BDA60234B80225A61214B8022AB
:104E38001A61204B4FF400721A611D4B9B89013394
:104E48009BB21846FFF79CFC1A4B4FF480721A610C
:104E5800184B4FF400725A61BB88174ADBB2D36013
:104E6800144B80225A61134B80221A61114B4FF464
:104E780000721A6118E00E4B9B79012B06D10C4B7E
:104E88001A88FB88D31A9BB2013BFB80084B5B89CD
:104E9800FA8811461846FFF7FFFC054B9B89BA882C
:104EA80011461846FFF7F8FC00BF0837BD4680BD1D
:104EB8004408002000100140000C014080B584B077
:104EC80000AF0346FB710023FB810023BB81784BB5
:104ED8009B79012B0BD1764B9B8846F604029342B3
:104EE80005D0734B9B8841F66312934209D1704BEE
:104EF8009B79002B34D16E4B9B8841F66312934209
:104F08002ED1FB79072B2BD801A252F823F000BF32
:104F1800394F00083F4F0008454F00084B4F000825
:104F2800514F0008574F00085D4F0008634F0008B5
:104F38000623FB7114E00723FB7111E00423FB71C6
:104F48000EE00523FB710BE00123FB7108E0002351
:104F5800FB7105E00323FB7102E00223FB7100BF34
:104F6800534B9B8849F24132934218D0504B9B884F
:104F780046F60402934212D04D4B9B8845F21032FC
:104F880093420CD04A4B9B8845F21052934206D06C
:104F9800474B9B8841F66312934240F05082FB795D
:104FA800072B36D801A252F823F000BF1B50000887
:104FB800D54F0008DF4F0008E94F0008F34F0008FD
:104FC800FD4F00080750000811500008FB8943F006
:104FD8008003FB811DE0FB8943F04003FB8118E05F
:104FE800FB8943F0C003FB8113E0FB8943F02003F6
:104FF800FB810EE0FB8943F06003FB8109E0FB893C
:1050080043F0A003FB8104E0FB8943F0E003FB814C
:1050180000BF274B9B8845F21052934203D14FF4AF
:105028005853BB8101E03623BB81214B9B8845F255
:10503800103293420FD01E4B9B8845F21052934278
:1050480009D01B4B9B8841F66312934203D0FB891E
:1050580043F00803FB81164B9B8846F604029342F3
:1050680003D1FB8943F00203FB81FA89BB8911460E
:105078001846FFF711FC0E4B9B8841F663129342CA
:1050880028D0FB8903F02003002B13D0084B1A8883
:10509800074B5B889A421DD2054B1B887B81044BCA
:1050A8005A88034B1A80024A7B89538012E000BF5A
:1050B800440800207F4B1A887E4B5B889A4209D9A6
:1050C8007C4B1B887B817B4B5A887A4B1A80794AA8
:1050D8007B895380774B9B8845F21052934240F06E
:1050E800EF80744B5B891846FFF74AFB724B4FF40D
:1050F80080721A61704B4FF400725A616F4B002234
:10510800DA606D4B80225A616B4B80221A616A4BC0
:105118004FF400721A61674B5B8901339BB21846E2
:10512800FFF72EFB644B4FF480721A61624B4FF409
:1051380000725A61614B0022DA605F4B80225A612B
:105148005D4B80221A615C4B4FF400721A61594B17
:105158005B8902339BB21846FFF712FB564B4FF49C
:1051680080721A61544B4FF400725A61514B1B887C
:10517800013B1A12514BDA604F4B80225A614E4B59
:1051880080221A614C4B4FF400721A61494B5B89BB
:1051980003339BB21846FFF7F3FA474B4FF480727C
:1051A8001A61454B4FF400725A61424B1B88013B10
:1051B800424ADBB2D360404B80225A613E4B802288
:1051C8001A613D4B4FF400721A613A4B9B8918469D
:1051D800FFF7D6FA384B4FF480721A61364B4FF40A
:1051E80000725A61354B0022DA60334B80225A61D3
:1051F800314B80221A61304B4FF400721A612D4BEB
:105208009B8901339BB21846FFF7BAFA2A4B4FF431
:1052180080721A61284B4FF400725A61274B0022A2
:10522800DA60254B80225A61234B80221A61224B77
:105238004FF400721A611F4B9B8902339BB21846C8
:10524800FFF79EFA1C4B4FF480721A611A4B4FF409
:1052580000725A61174B5B88013B1A12174BDA60D0
:10526800154B80225A61144B80221A61124B4FF45D
:1052780000721A610F4B9B8903339BB21846FFF7E4
:105288007FFA0D4B4FF480721A610B4B4FF400728A
:105298005A61084B5B88013B084ADBB2D360064B76
:1052A80080225A61044B80221A61034B4FF400722A
:1052B8001A610AE14408002000100140000C014076
:1052C800844B5B891846FFF75BFA834B4FF4807277
:1052D8001A61814B4FF400725A61804B0022DA60E8
:1052E8007D4B80225A617C4B80221A617A4B4FF4A5
:1052F80000721A61784B4FF480721A61764B4FF442
:1053080000725A61754B0022DA60734B80225A6131
:10531800714B80221A61704B4FF400721A616E4B08
:105328004FF480721A616C4B4FF400725A61694BEA
:105338001B88013B1A12694BDA60674B80225A615D
:10534800654B80221A61644B4FF400721A61624BFC
:105358004FF480721A61604B4FF400725A615D4BD2
:105368001B88013B5D4ADBB2D3605B4B80225A61EC
:10537800594B80221A61584B4FF400721A61554BF1
:105388009B891846FFF7FCF9534B4FF480721A615A
:10539800514B4FF400725A61504B0022DA604E4B69
:1053A80080225A614C4B80221A614B4B4FF4007299
:1053B8001A61494B4FF480721A61474B4FF40072DF
:1053C8005A61464B0022DA60434B80225A61424BB5
:1053D80080221A61404B4FF400721A613E4B4FF421
:1053E80080721A613C4B4FF400725A61394B5B88EA
:1053F800013B1A12394BDA60374B80225A61364B1F
:1054080080221A61344B4FF400721A61324B4FF408
:1054180080721A61304B4FF400725A612D4B5B88D1
:10542800013B2E4ADBB2D3602B4B80225A612A4BB8
:1054380080221A61284B4FF400721A6145E0FB790B
:10544800072B36D801A252F823F000BF7554000884
:105458007F54000889540008BB540008935400087E
:105468009D540008A7540008B1540008FB8943F074
:105478003003FB811DE0FB8943F01003FB8118E03A
:10548800FB8943F02003FB8113E0FB8943F03803D9
:10549800FB810EE0FB8943F02803FB8109E0FB89CF
:1054A80043F01803FB8104E0FB8943F00803FB8108
:1054B80000BF0323BB81FB8943F48053FB81FA8936
:1054C800BB8911461846FFF7E7F900BF1037BD46FC
:1054D80080BD00BF4408002000100140000C0140BE
:1054E80080B582B000AF03460A46FB801346BB80F6
:1054F800BA88FB8811461846FFF714FAFFF706FA30
:105508000C4B4FF480721A610A4B4FF400725A61C7
:10551800094B1A88094BDA60064B80225A61054B01
:1055280080221A61034B4FF400721A6100BF0837DA
:10553800BD4680BD0010014098030020000C0140CA
:1055480080B582B000AF0346FB800B46BB80134694
:105558007B80754B9B8849F24132934205D0724B50
:105568009B8845F21032934264D16F4B5B89184691
:10557800FFF706F96D4B4FF480721A616B4B4FF4CD
:1055880000725A61FB881B0A9AB2694BDA60674B52
:1055980080225A61654B80221A61644B4FF4007275
:1055A8001A61624B4FF480721A61604B4FF40072BB
:1055B8005A61FB885E4ADBB2D3605C4B80225A6139
:1055C8005A4B80221A61594B4FF400721A61564B9C
:1055D8009B891846FFF7D4F8544B4FF480721A6130
:1055E800524B4FF400725A61BB881B0A9AB2504B57
:1055F800DA604E4B80225A614C4B80221A614B4B29
:105608004FF400721A61494B4FF480721A61474B8C
:105618004FF400725A61BB88454ADBB2D360434BF2
:1056280080225A61414B80221A61404B4FF400722C
:105638001A61E6E13C4B9B8845F21052934279D1BE
:10564800394B5B891846FFF79BF8384B4FF480724B
:105658001A61364B4FF400725A61FB881B0A9AB2E2
:10566800334BDA60314B80225A61304B80221A6109
:105678002E4B4FF400721A612B4B5B8901339BB29E
:105688001846FFF77DF8294B4FF480721A61274BB3
:105698004FF400725A61FB88254ADBB2D360234B72
:1056A80080225A61214B80221A61204B4FF40072EC
:1056B8001A611D4B9B891846FFF762F81B4B4FF484
:1056C80080721A61194B4FF400725A61BB881B0A29
:1056D8009AB2174BDA60154B80225A61134B80221D
:1056E8001A61124B4FF400721A610F4B9B890133F8
:1056F8009BB21846FFF744F80C4B4FF480721A61BE
:105708000A4B4FF400725A61BB88094ADBB2D36076
:10571800064B80225A61054B80221A61034B4FF4D5
:1057280000721A616DE100BF4408002000100140BA
:10573800000C0140684B9B8841F66312934240F08D
:10574800D180654B9B79002B06D1634B1A88FB8867
:10575800D31A9BB2013BFB805F4B5B891846FFF76E
:105768000FF85E4B4FF480721A615C4B4FF4007275
:105778005A61FB881B0A9AB2594BDA60574B802250
:105788005A61564B80221A61544B4FF400721A61C9
:10579800524B4FF480721A61504B4FF400725A61A9
:1057A800FB884F4ADBB2D3604C4B80225A614B4B8B
:1057B80080221A61494B4FF400721A61474B4FF42B
:1057C80080721A61454B4FF400725A61FB881B0ABC
:1057D8009AB2434BDA60414B80225A613F4B802298
:1057E8001A613E4B4FF400721A613C4B4FF48072C1
:1057F8001A613A4B4FF400725A61FB88384ADBB29F
:10580800D360364B80225A61344B80221A61334B65
:105818004FF400721A61304B9B891846FEF7B0FFAF
:105828002E4B4FF480721A612C4B4FF400725A6160
:10583800BB881B0A9AB22A4BDA60284B80225A612D
:10584800264B80221A61254B4FF400721A61234BB4
:105858004FF480721A61214B4FF400725A61BB8871
:105868001F4ADBB2D3601D4B80225A611B4B80223A
:105878001A611A4B4FF400721A61184B4FF4807278
:105888001A61164B4FF400725A61BB881B0A9AB210
:10589800134BDA60114B80225A61104B80221A6137
:1058A8000E4B4FF400721A610C4B4FF480721A6160
:1058B8000A4B4FF400725A61BB88094ADBB2D360C5
:1058C800064B80225A61054B80221A61034B4FF424
:1058D80000721A6195E000BF4408002000100140E2
:1058E800000C01405E4B9B8846F6040293426FD140
:1058F8005B4B9B79012B06D1594B1A88FB88D31A2D
:105908009BB2013BFB80564B5B891846FEF738FF7C
:10591800544B4FF480721A61524B4FF400725A6123
:10592800FB881B0A9AB2504BDA604E4B80225A61B0
:105938004C4B80221A614B4B4FF400721A61494B51
:105948004FF480721A61474B4FF400725A61FB881A
:10595800454ADBB2D360434B80225A61414B8022D7
:105968001A61404B4FF400721A613D4B9B891846EF
:10597800FEF706FF3B4B4FF480721A61394B4FF428
:1059880000725A61BB881B0A9AB2374BDA60354BF2
:1059980080225A61334B80221A61324B4FF40072D5
:1059A8001A61304B4FF480721A612E4B4FF400721B
:1059B8005A61BB882C4ADBB2D3602A4B80225A61D9
:1059C800284B80221A61274B4FF400721A6118E0A5
:1059D800234B9B79012B06D1214B1A88FB88D31ABC
:1059E8009BB2013BFB801E4B5B89FA881146184627
:1059F800FEF752FF1A4B9B89BA8811461846FEF7E4
:105A08004BFF184B4FF480725A61164B4FF40072DB
:105A18005A61134B1A89144BDA60124B80225A616F
:105A2800104B80221A610F4B4FF400721A610D4B14
:105A38004FF480721A610B4B4FF400725A610A4A94
:105A48007B88D360074B80225A61064B80221A61FB
:105A5800044B4FF400721A6100BF0837BD4680BD81
:105A68004408002000100140000C01400000000024
:105A780090B583B000AF0346FB71BE20FEF780FEF1
:105A88004B4B4FF480721A61494B4FF400725A61C4
:105A9800484B0522DA60464B80225A61444B8022EB
:105AA8001A61434B4FF400721A61414B4FF48072F4
:105AB8001A613F4B4FF400725A61FB791846FAF7A6
:105AC80001FD39A3D3E90023FAF766FD03460C4626
