:020000040800F2
:1000000000C00020554B0008414900084D49000838
:1000100053490008594900085F49000800000000E2
:10002000000000000000000000000000913C0008FB
:100030006549000800000000613E0008A93E000874
:100040009D4B00089D4B00089D4B00089D4B0008F0
:100050009D4B00089D4B00089D4B00089D4B0008E0
:100060009D4B00089D4B00089D4B00089D4B0008D0
:100070009D4B00089D4B00089D4B00089D4B0008C0
:100080009D4B00089D4B00089D4B00089D4B0008B0
:100090009D4B00089D4B00089D4B00089D4B0008A0
:1000A0009D4B00089D4B00089D4B00089D4B000890
:1000B0009D4B0008714900089D4B00089D4B0008AE
:1000C0009D4B00089D4B00089D4B00089D4B000870
:1000D0009D4B0008854900089D4B00089D4B00087A
:1000E0009D4B00089D4B00089D4B00089D4B000850
:1000F0009D4B00089D4B00089D4B00089D4B000840
:100100009D4B00089D4B00089D4B00089D4B00082F
:100110009D4B00089D4B00089D4B00089D4B00081F
:100120009D4B00089D4B00089D4B00089D4B00080F
:1001300000000000000000000000000000000000BF
:1001400000000000000000000000000000000000AF
:10015000000000000000000000000000000000009F
:10016000000000000000000000000000000000008F
:10017000000000000000000000000000000000007F
:10018000000000000000000000000000000000006F
:10019000000000000000000000000000000000005F
:1001A000000000000000000000000000000000004F
:1001B000000000000000000000000000000000003F
:1001C000000000000000000000000000000000002F
:1001D000000000000000000000000000000000001F
:0401E0005FF8E0F1F3
:1001F00010B5054C237833B9044B13B10448AFF361
:1002000000800123237010BD740000200000000056
:100210002C54000808B5034B1BB103490348AFF346
:10022000008008BD00000000780000202C54000869
:10023000034613F8012B002AFBD1181A0138704726
:1002400080B500AF084B1B68074A43F010031360EA
:10025000032000F0F3F8002004F01AFB04F0E0FAA9
:100260000023184680BD00BF0020024080B400AFCC
:10027000054B1B781A46054B1B681344034A136051
:1002800000BFBD4680BC704704000020100E002057
:1002900080B400AF024B1B681846BD4680BC704757
:1002A000100E002080B584B000AF7860FFF7F0FF3B
:1002B000B8607B68FB60FB68B3F1FF3F05D0094B7A
:1002C0001B781A46FB681344FB6000BFFFF7E0FF92
:1002D0000246BB68D31AFA689A42F7D800BF1037B3
:1002E000BD4680BD0400002080B485B000AF7860BA
:1002F0007B6803F00703FB600C4BDB68BB60BA68EC
:100300004FF6FF031340BB60FB681A02BB68134340
:1003100043F0BF6343F40033BB60044ABB68D3605F
:1003200000BF1437BD4680BC704700BF00ED00E041
:1003300080B400AF044BDB681B0A03F007031846C8
:10034000BD4680BC704700BF00ED00E080B483B0C4
:1003500000AF0346FB7197F90730002B0BDBFB79ED
:1003600003F01F02064997F907305B09012000FAE4
:1003700002F241F8232000BF0C37BD4680BC704715
:1003800000E100E080B483B000AF03463960FB7148
:1003900097F90730002B0ADB3B68DAB20C4997F972
:1003A00007301201D2B20B4483F800230AE03B6805
:1003B000DAB20849FB7903F00F03043B1201D2B211
:1003C0000B441A7600BF0C37BD4680BC704700BF97
:1003D00000E100E000ED00E080B489B000AFF8601B
:1003E000B9607A60FB6803F00703FB61FB69C3F146
:1003F0000703042B28BF0423BB61FB690433062BCE
:1004000002D9FB69033B00E000237B614FF0FF3220
:10041000BB6902FA03F3DA43BB681A407B699A406E
:100420004FF0FF317B6901FA03F3D9437B680B403E
:10043000134318462437BD4680BC704780B582B050
:1004400000AF78607868FFF74FFF00BF0837BD4600
:1004500080BD80B586B000AF0346B9607A60FB739B
:1004600000237B61FFF764FF78617A68B968786977
:10047000FFF7B2FF024697F90F3011461846FFF713
:1004800081FF00BF1837BD4680BD80B582B000AF88
:100490000346FB7197F907301846FFF757FF00BF77
:1004A0000837BD4680BD000080B584B000AF7860DD
:1004B0000023FB737B6893F82130022B05D07B6807
:1004C00004229A630123FB73D6E07B681B681A68D9
:1004D0007B681B6822F00E021A607B681B681A6832
:1004E0007B681B6822F001021A607B681B681A4651
:1004F000644B9A4258D97B681B68634A93424FD039
:100500007B681B68614A934248D07B681B68604ADD
:10051000934240D07B681B685E4A934238D07B6828
:100520001B685D4A934230D07B681B685B4A9342EC
:1005300028D07B681B68534A934220D07B681B6895
:10054000574A934219D07B681B68564A934212D08F
:100550007B681B68544A93420AD07B681B68534AE5
:10056000934202D14FF480531BE04FF4803318E0E4
:100570004FF4807315E0102313E0012311E04FF0D6
:1005800080730EE04FF480130BE04FF4803308E0EB
:100590004FF4805305E04FF4807302E0102300E035
:1005A0000123434A536057E07B681B68364A9342F5
:1005B0004FD07B681B68354A934248D07B681B68E4
:1005C000334A934240D07B681B68324A934238D00A
:1005D0007B681B68304A934230D07B681B682F4A87
:1005E000934228D07B681B68264A934220D07B68C0
:1005F0001B682B4A934219D07B681B68294A934297
:1006000012D07B681B68284A93420AD07B681B681B
:10061000264A934202D14FF480531BE04FF48033BB
:1006200018E04FF4807315E0102313E0012311E06C
:100630004FF080730EE04FF480130BE04FF48033E3
:1006400008E04FF4805305E04FF4807302E010237C
:1006500000E00123174A53607B68012283F82120C0
:100660007B68002283F820207B685B6B002B03D023
:100670007B685B6B78689847FB7B18461037BD46F4
:1006800080BD00BF80000240080002401C00024004
:100690003000024044000240580002406C0002401A
:1006A000080402401C04024030040240440402409A
:1006B000000402400000024080B48BB000AF7860BC
:1006C000396000237B6200233B6233E101227B6AB5
:1006D00002FA03F3FB613B681B68FA691340BB61D4
:1006E000BA69FB699A4240F022813B685B68122B31
:1006F00034D0122B0DD8022B2BD0022B04D8002B78
:1007000031D0012B1CD048E0032B43D0112B1BD040
:1007100043E08F4A934226D08D4A934206D88D4AB1
:10072000934220D08C4A93421DD036E08B4A9342AC
:1007300019D08B4A934216D08A4A934213D02CE0A8
:100740003B68DB683B6228E03B68DB6804333B6264
:1007500023E03B68DB6808333B621EE03B68DB68F4
:100760000C333B6219E03B689B68002B02D10423E9
:100770003B6212E03B689B68012B05D108233B627A
:100780007B68FA691A6108E008233B627B68FA69B2
:100790005A6102E000233B6200BFBB69FF2B01D816
:1007A0007B6801E07B6804337B61BB69FF2B02D867
:1007B0007B6A9B0002E07B6A083B9B003B617B6994
:1007C0001A680F213B6901FA03F3DB431A40396AC7
:1007D0003B6901FA03F31A437B691A603B685B6863
:1007E00003F08053002B00F0A2805F4B9B695E4AB0
:1007F00043F0010393615C4B9B6903F00103BB6011
:10080000BB685A4A7B6A9B08023352F82330FB606C
:100810007B6A03F003039B000F2202FA03F3DB431E
:10082000FA681340FB607B68514A93421FD07B6893
:10083000504A934219D07B684F4A934213D07B6849
:100840004E4A93420DD07B684D4A934207D07B6855
:100850004C4A934201D105230AE0062308E0042311
:1008600006E0032304E0022302E0012300E000236A
:100870007A6A02F0030292009340FA681343FB6025
:100880003A497B6A9B080233FA6841F823203B68A7
:100890005B6803F48033002B06D03B4B1A683A495F
:1008A000BB6913430B6006E0374B1A68BB69DB4337
:1008B000354913400B603B685B6803F40033002B41
:1008C00006D0314B5A683049BB6913434B6006E090
:1008D0002D4B5A68BB69DB432B4913404B603B6887
:1008E0005B6803F48013002B06D0274B9A682649D7
:1008F000BB6913438B6006E0234B9A68BB69DB43FB
:10090000214913408B603B685B6803F40013002BA4
:1009100006D01D4BDA681C49BB691343CB6006E067
:10092000194BDA68BB69DB4317491340CB607B6A1C
:1009300001337B623B681A687B6A22FA03F3002B5F
:100940007FF4C4AE00BF2C37BD4680BC704700BFEB
:1009500000002110000011100000121000003110E2
:100960000000321000002210001002400000014080
:1009700000080140000C014000100140001401403B
:1009800000180140001C01400004014080B483B005
:1009900000AF78600B467B8013467B707B78002B22
:1009A00003D07A887B681A6103E07B881A047B682D
:1009B0001A6100BF0C37BD4680BC704780B483B05D
:1009C00000AF78600B467B807B68DA687B881340D9
:1009D000002B03D07A887B685A6102E07A887B68B2
:1009E0001A6100BF0C37BD4680BC704780B586B029
:1009F00000AF78607B68002B01D101236CE27B683B
:100A00001B6803F00103002B00F08780924B5B68AA
:100A100003F00C03042B0CD08F4B5B6803F00C032A
:100A2000082B12D18C4B5B6803F48033B3F5803F05
:100A30000BD1894B1B6803F40033002B6CD07B680F
:100A40005B68002B68D1012346E27B685B68B3F5E5
:100A5000803F06D1804B1B687F4A43F4803313608C
:100A60002EE07B685B68002B0CD17B4B1B687A4ABD
:100A700023F480331360784B1B68774A23F4802378
:100A800013601DE07B685B68B3F5A02F0CD1724B3F
:100A90001B68714A43F4802313606F4B1B686E4AD6
:100AA00043F4803313600BE06B4B1B686A4A23F4FA
:100AB00080331360684B1B68674A23F480231360FC
:100AC0007B685B68002B13D0FFF7E2FB386108E01E
:100AD000FFF7DEFB02463B69D31A642B01D90323DF
:100AE000FAE15D4B1B6803F40033002BF0D014E0F7
:100AF000FFF7CEFB386108E0FFF7CAFB02463B690F
:100B0000D31A642B01D90323E6E1534B1B6803F48A
:100B10000033002BF0D100E000BF7B681B6803F0BE
:100B20000203002B63D04C4B5B6803F00C03002BDB
:100B30000BD0494B5B6803F00C03082B1CD1464BD0
:100B40005B6803F48033002B16D1434B1B6803F022
:100B50000203002B05D07B681B69012B01D0012308
:100B6000BAE13D4B1B6823F0F8027B685B69DB0050
:100B7000394913430B603AE07B681B69002B20D096
:100B8000364B01221A60FFF783FB386108E0FFF75C
:100B90007FFB02463B69D31A022B01D903239BE159
:100BA0002D4B1B6803F00203002BF0D02A4B1B686F
:100BB00023F0F8027B685B69DB00274913430B6075
:100BC00015E0264B00221A60FFF762FB386108E04F
:100BD000FFF75EFB02463B69D31A022B01D90323C0
:100BE0007AE11D4B1B6803F00203002BF0D17B68F8
:100BF0001B6803F00803002B3AD07B689B69002B2D
:100C000019D0174B01221A60FFF742FB386108E048
:100C1000FFF73EFB02463B69D31A022B01D903239F
:100C20005AE10D4B5B6A03F00203002BF0D0012068
:100C300000F00AFB1CE00A4B00221A60FFF728FBB9
:100C400038610FE0FFF724FB02463B69D31A022B01
:100C500008D9032340E100BF0010024000004242D7
:100C6000800442429E4B5B6A03F00203002BE9D1F1
:100C70007B681B6803F00403002B00F0A6800023B0
:100C8000FB75974BDB6903F08053002B0DD1944B20
:100C9000DB69934A43F08053D361914BDB6903F0E6
:100CA0008053BB60BB680123FB758E4B1B6803F44C
:100CB0008073002B18D18B4B1B688A4A43F48073D6
:100CC0001360FFF7E5FA386108E0FFF7E1FA024642
:100CD0003B69D31A642B01D90323FDE0814B1B68C8
:100CE00003F48073002BF0D07B68DB68012B06D106
:100CF0007B4B1B6A7A4A43F0010313622DE07B6849
:100D0000DB68002B0CD1764B1B6A754A23F001037C
:100D10001362734B1B6A724A23F0040313621CE0D4
:100D20007B68DB68052B0CD16D4B1B6A6C4A43F06A
:100D3000040313626A4B1B6A694A43F0010313629E
:100D40000BE0674B1B6A664A23F001031362644B96
:100D50001B6A634A23F0040313627B68DB68002B81
:100D600015D0FFF795FA38610AE0FFF791FA0246CD
:100D70003B69D31A41F28832934201D90323ABE095
:100D8000574B1B6A03F00203002BEED014E0FFF771
:100D90007FFA38610AE0FFF77BFA02463B69D31A13
:100DA00041F28832934201D9032395E04C4B1B6AF0
:100DB00003F00203002BEED1FB7D012B05D1484B44
:100DC000DB69474A23F08053D3617B68DB69002BE2
:100DD00000F08180424B5B6803F00C03082B61D06C
:100DE0007B68DB69022B46D13F4B00221A60FFF77C
:100DF0004FFA386108E0FFF74BFA02463B69D31A15
:100E0000022B01D9032367E0354B1B6803F0007305
:100E1000002BF0D17B681B6AB3F5803F08D1304BC3
:100E20005B6823F400327B689B682D4913434B6059
:100E30002B4B5B6823F474127B68196A7B685B6ACE
:100E40000B43274913434B60274B01221A60FFF7DE
:100E50001FFA386108E0FFF71BFA02463B69D31A14
:100E6000022B01D9032337E01D4B1B6803F00073ED
:100E7000002BF0D02FE01C4B00221A60FFF708FA7D
:100E8000386108E0FFF704FA02463B69D31A022BE7
:100E900001D9032320E0124B1B6803F00073002BE1
:100EA000F0D118E07B68DB69012B01D1012313E04D
:100EB0000B4B5B68FB60FB6803F480327B681B6A4A
:100EC0009A4206D1FB6803F470127B685B6A9A420F
:100ED00001D0012300E0002318461837BD4680BD2D
:100EE00000100240007000406000424280B584B0B3
:100EF00000AF786039607B68002B01D10123D0E01E
:100F00006A4B1B6803F007033A689A4210D9674B93
:100F10001B6823F0070265493B6813430B60634B72
:100F20001B6803F007033A689A4201D00123B8E036
:100F30007B681B6803F00203002B20D07B681B68D2
:100F400003F00403002B05D0594B5B68584A43F467
:100F5000E06353607B681B6803F00803002B05D037
:100F6000534B5B68524A43F460535360504B5B6889
:100F700023F0F0027B689B684D4913434B607B680C
:100F80001B6803F00103002B40D07B685B68012BDA
:100F900007D1474B1B6803F40033002B15D1012305
:100FA0007FE07B685B68022B07D1414B1B6803F035
:100FB0000073002B09D1012373E03D4B1B6803F044
:100FC0000203002B01D101236BE0394B5B6823F056
:100FD00003027B685B68364913434B60FFF758F99F
:100FE000F8600AE0FFF754F90246FB68D31A41F2B1
:100FF0008832934201D9032353E02D4B5B6803F001
:101000000C027B685B689B009A42EBD1274B1B6804
:1010100003F007033A689A4210D2244B1B6823F06E
:10102000070222493B6813430B60204B1B6803F007
:1010300007033A689A4201D0012332E07B681B68BB
:1010400003F00403002B08D0194B5B6823F4E06223
:101050007B68DB68164913434B607B681B6803F0B1
:101060000803002B09D0124B5B6823F460527B68A5
:101070001B69DB000E4913434B6000F021F8014669
:101080000B4B5B681B0903F00F030A4AD35C21FA80
:1010900003F3094A1360094B1B68184603F0F8FB79
:1010A000002318461037BD4680BD00BF0020024017
:1010B00000100240EC5400080C000020000000204A
:1010C00090B48AB000AF2A4B3C1D0FCB84E80F00D0
:1010D000284B1B883B800023FB610023BB6100235E
:1010E0007B6200237B6100233B62234B5B68FB61D7
:1010F000FB6903F00C03042B02D0082B03D02DE076
:101100001E4B3B622DE0FB699B0C03F00F0307F1C4
:101110002802134413F8243C7B61FB6903F48033F9
:10112000002B13D0144B5B685B0C03F0010307F139
:101130002802134413F8283CBB617B690F4A02FB69
:1011400003F2BB69B2FBF3F37B6204E07B690C4AF8
:1011500002FB03F37B627B6A3B6202E0074B3B626C
:1011600000BF3B6A18462837BD4690BC704700BF99
:1011700044540008545400080010024000127A0041
:1011800000093D0080B400AF024B1B681846BD4605
:1011900080BC70470C00002080B500AFFFF7F2FF65
:1011A0000146054B5B681B0A03F00703034AD35C47
:1011B00021FA03F3184680BD00100240FC540008D9
:1011C00080B500AFFFF7DEFF0146054B5B68DB0A29
:1011D00003F00703034AD35C21FA03F3184680BDEA
:1011E00000100240FC54000880B483B000AF786067
:1011F00039607B680F221A60114B5B6803F00302B1
:101200007B685A600E4B5B6803F0F0027B689A6063
:101210000B4B5B6803F4E0627B68DA60084B5B6849
:10122000DB0803F4E0627B681A61064B1B6803F07D
:1012300007023B681A6000BF0C37BD4680BC704790
:10124000001002400020024080B485B000AF7860FA
:101250000A4B1B680A4AA2FB03235B0A7A6802FB5B
:1012600003F3FB6000BFFB685A1EFA60002BF9D144
:1012700000BF1437BD4680BC704700BF0C00002083
:10128000D34D621080B582B000AF78607B68002BD0
:1012900001D101231DE07B6893F83D30DBB2002BC8
:1012A00006D17B68002283F83C20786800F015F8AE
:1012B0007B68022283F83D207B681A687B680433D0
:1012C0001946104600F062F97B68012283F83D2040
:1012D000002318460837BD4680BD80B483B000AFF8
:1012E000786000BF0C37BD4680BC704780B485B0C5
:1012F00000AF78607B681B68DA687B681B6842F027
:101300000102DA607B681B689B6803F00703FB60DF
:10131000FB68062B07D07B681B681A687B681B6814
:1013200042F001021A60002318461437BD4680BC03
:10133000704780B582B000AF78607B681B681B691E
:1013400003F00203022B22D17B681B68DB6803F0E9
:101350000203022B1BD17B681B686FF002021A612B
:101360007B6801221A777B681B689B6903F0030383
:10137000002B03D0786800F0EDF805E0786800F005
:10138000E0F8786800F0EFF87B6800221A777B6855
:101390001B681B6903F00403042B22D17B681B68C4
:1013A000DB6803F00403042B1BD17B681B686FF020
:1013B00004021A617B6802221A777B681B689B69AA
:1013C00003F44073002B03D0786800F0C3F805E005
:1013D000786800F0B6F8786800F0C5F87B680022FD
:1013E0001A777B681B681B6903F00803082B22D15E
:1013F0007B681B68DB6803F00803082B1BD17B6844
:101400001B686FF008021A617B6804221A777B68F8
:101410001B68DB6903F00303002B03D0786800F03E
:1014200099F805E0786800F08CF8786800F09BF88F
:101430007B6800221A777B681B681B6903F0100326
:10144000102B22D17B681B68DB6803F01003102B84
:101450001BD17B681B686FF010021A617B68082241
:101460001A777B681B68DB6903F44073002B03D099
:10147000786800F06FF805E0786800F062F8786846
:1014800000F071F87B6800221A777B681B681B6983
:1014900003F00103012B0ED17B681B68DB6803F0AE
:1014A0000103012B07D17B681B686FF001021A61F1
:1014B000786803F09DF97B681B681B6903F0800363
:1014C000802B0ED17B681B68DB6803F08003802BC8
:1014D00007D17B681B686FF080021A61786800F0A2
:1014E000D8F87B681B681B6903F04003402B0ED1C2
:1014F0007B681B68DB6803F04003402B07D17B68E7
:101500001B686FF040021A61786800F035F87B685C
:101510001B681B6903F02003202B0ED17B681B681E
:10152000DB6803F02003202B07D17B681B686FF07A
:1015300020021A61786800F0A3F800BF0837BD46A2
:1015400080BD80B483B000AF786000BF0C37BD466B
:1015500080BC704780B483B000AF786000BF0C37A8
:10156000BD4680BC704780B483B000AF786000BFD8
:101570000C37BD4680BC704780B483B000AF786044
:1015800000BF0C37BD4680BC7047000080B485B0FA
:1015900000AF786039607B681B68FB607B68334A0A
:1015A000934213D07B68324A93420FD07B68B3F1E9
:1015B000804F0BD07B682F4A934207D07B682E4A1E
:1015C000934203D07B682D4A934208D1FB6823F0F5
:1015D0007003FB603B685B68FA681343FB607B68E1
:1015E000224A934213D07B68214A93420FD07B68F2
:1015F000B3F1804F0BD07B681E4A934207D07B68C3
:101600001D4A934203D07B681C4A934208D1FB6871
:1016100023F44073FB603B68DB68FA681343FB60AC
:10162000FB6823F080023B685B691343FB607B68C7
:10163000FA681A603B689A687B68DA623B681A68E5
:101640007B689A627B68094A934203D07B68084AA8
:10165000934203D13B681A697B681A637B68012255
:101660005A6100BF1437BD4680BC7047002C014052
:10167000003401400004004000080040000C00401D
:1016800080B483B000AF786000BF0C37BD4680BC2B
:10169000704780B483B000AF786000BF0C37BD46A0
:1016A00080BC704780B582B000AF78607B68002B4B
:1016B00001D101233FE07B6893F83930DBB2002B86
:1016C00006D17B68002283F83820786803F0EEF9B1
:1016D0007B68242283F839207B681B68DA687B6882
:1016E0001B6822F40052DA60786800F041FB7B68E6
:1016F0001B681A697B681B6822F490421A617B6838
:101700001B685A697B681B6822F02A025A617B6851
:101710001B68DA687B681B6842F40052DA607B68F9
:101720000022DA637B68202283F839207B6820223C
:1017300083F83A20002318460837BD4680BD80B59F
:1017400088B002AFF860B9603B601346FB800023AD
:101750007B61FB6893F83930DBB2202B40F083804B
:10176000BB68002B02D0FB88002B01D101237BE05A
:10177000FB6893F83830012B01D1022374E0FB6839
:10178000012283F83820FB680022DA63FB682122FB
:1017900083F83920FEF77CFD7861FB68FA889A842B
:1017A000FB68FA88DA8442E0FB68DB8C9BB2013B81
:1017B0009AB2FB68DA84FB689B68B3F5805F22D13C
:1017C0003B6800937B6900228021F86800F067F98C
:1017D0000346002B01D0032346E0BB683B613B6915
:1017E0001B881A46FB681B68C2F308025A60FB6834
:1017F0001B69002B03D1BB680233BB6017E0BB68D9
:101800000133BB6013E03B6800937B6900228021B9
:10181000F86800F044F90346002B01D0032323E0CD
:10182000BB685A1CBA601A78FB681B685A60FB6870
:10183000DB8C9BB2002BB7D13B6800937B69002205
:101840004021F86800F02BF90346002B01D0032358
:101850000AE0FB68202283F83920FB68002283F825
:101860003820002300E0022318461837BD4680BD0B
:1018700080B588B000AF78607B681B681B68FB612F
:101880007B681B68DB68BB617B681B685B697B618D
:1018900000233B610023FB60FB6903F00F033B6106
:1018A0003B69002B0DD1FB6903F02003002B08D00E
:1018B000BB6903F02003002B03D0786800F0D7F950
:1018C000CCE03B69002B00F0AB807B6903F00103A7
:1018D000002B05D1BB6903F49073002B00F0A080AE
:1018E000FB6903F00103002B0AD0BB6903F480738A
:1018F000002B05D07B68DB6B43F001027B68DA6369
:10190000FB6903F00403002B0AD07B6903F0010399
:10191000002B05D07B68DB6B43F002027B68DA6347
:10192000FB6903F00203002B0AD07B6903F001037B
:10193000002B05D07B68DB6B43F004027B68DA6325
:10194000FB6903F00803002B0AD07B6903F0010355
:10195000002B05D07B68DB6B43F008027B68DA6301
:101960007B68DB6B002B78D0FB6903F02003002B36
:1019700007D0BB6903F02003002B02D0786800F089
:1019800076F97B681B685B6903F04003002B14BF8A
:1019900001230023DBB2FB607B68DB6B03F00803F1
:1019A000002B02D1FB68002B31D0786800F0C1F821
:1019B0007B681B685B6903F04003002B23D07B68C6
:1019C0001B685A697B681B6822F040025A617B6879
:1019D0005B6B002B13D07B685B6B224A5A637B687E
:1019E0005B6B1846FEF760FD0346002B16D07B6844
:1019F0005B6B5B6B7A68526B104698470EE07868B9
:101A000000F044F80AE0786800F040F806E07868F2
:101A100000F03CF87B680022DA631EE000BF1CE0A7
:101A2000FB6903F08003002B08D0BB6903F080033F
:101A3000002B03D0786800F0ADF80FE0FB6903F0ED
:101A40004003002B0AD0BB6903F04003002B05D0F4
:101A5000786800F0F4F800BF00E000BF2037BD4612
:101A600080BD00BF6D1B000880B483B000AF7860FC
:101A700000BF0C37BD4680BC704780B483B000AF58
:101A8000786000BF0C37BD4680BC704780B483B01F
:101A900000AF786000BF0C37BD4680BC704780B592
:101AA00084B000AFF860B9603B601346FB712CE076
:101AB000BB69B3F1FF3F28D0BB69002B07D0FEF70D
:101AC000E7FB02463B68D31ABA699A421DD2FB680B
:101AD0001B68DA68FB681B6822F4D072DA60FB6866
:101AE0001B685A69FB681B6822F001025A61FB6897
:101AF000202283F83920FB68202283F83A20FB68F3
:101B0000002283F8382003230FE0FB681B681A6863
:101B1000BB681340BA689A420CBF01230023DBB2B2
:101B20001A46FB799A42C3D0002318461037BD46A7
:101B300080BD80B483B000AF78607B681B68DA68D2
:101B40007B681B6822F49072DA607B681B685A69B4
:101B50007B681B6822F001025A617B68202283F8AF
:101B60003A2000BF0C37BD4680BC704780B584B0BA
:101B700000AF78607B685B6AFB60FB680022DA85F7
:101B8000FB680022DA84F868FFF780FF00BF103797
:101B9000BD4680BD80B485B000AF78607B6893F8A7
:101BA0003930DBB2212B44D17B689B68B3F5805F71
:101BB0001AD17B681B6AFB60FB681B881A467B682E
:101BC0001B68C2F308025A607B681B69002B05D1B1
:101BD0007B681B6A9A1C7B681A620EE07B681B6A32
:101BE0005A1C7B681A6208E07B681B6A591C7A6879
:101BF00011621A787B681B685A607B68DB8C9BB229
:101C0000013B9BB27A681946D184002B0FD17B68C7
:101C10001B68DA687B681B6822F08002DA607B68E8
:101C20001B68DA687B681B6842F04002DA600023B8
:101C300000E0022318461437BD4680BC704780B5CB
:101C400082B000AF78607B681B68DA687B681B68CD
:101C500022F04002DA607B68202283F8392078681D
:101C6000FFF702FF002318460837BD4680BD80B548
:101C700084B000AF78607B6893F83A30DBB2222BF7
:101C800071D17B689B68B3F5805F23D17B689B6AC9
:101C9000FB607B681B69002B0ED17B681B685B684F
:101CA0009BB2C3F308039AB2FB681A807B689B6AF5
:101CB0009A1C7B689A6229E07B681B685B689BB210
:101CC000DBB29AB2FB681A807B689B6A5A1C7B68FD
:101CD0009A621BE07B681B69002B0AD17B681B683A
:101CE00058687B689B6A591C7A689162C2B21A7004
:101CF0000CE07B681B685B68DAB27B689B6A581CE7
:101D00007968886202F07F02D2B21A707B68DB8D3C
:101D10009BB2013B9BB27A681946D185002B20D13A
:101D20007B681B68DA687B681B6822F02002DA6037
:101D30007B681B68DA687B681B6822F48072DA6053
:101D40007B681B685A697B681B6822F001025A6134
:101D50007B68202283F83A207868FFF78EFE002304
:101D600002E0002300E0022318461037BD4680BD84
:101D700080B584B000AF78607B681B681B6923F472
:101D800040517B68DA687B681B680A431A617B688C
:101D90009A687B681B691A437B685B691343FB6025
:101DA0007B681B68DB6823F4B05323F00C037A686C
:101DB0001268F9680B43D3607B681B685B6923F486
:101DC00040717B689A697B681B680A435A617B682B
:101DD0001B68524A93424ED1FFF7F2F9B860BA68D5
:101DE00013469B0013449A001A447B685B689B006F
:101DF000B2FBF3F34A4AA2FB03235B091901BA6859
:101E000013469B0013449A001A447B685B689B004E
:101E1000B2FBF3F2424BA3FB02035B09642000FB1D
:101E200003F3D31A1B0132333D4AA2FB03235B09A0
:101E300003F0F0031944BA6813469B0013449A0058
:101E40001A447B685B689B00B2FBF3F2344BA3FB44
:101E500002035B09642000FB03F3D31A1B01323336
:101E60002F4AA2FB03235B0903F00F027B681B6868
:101E70000A449A604DE0FFF78FF9B860BA681346DC
:101E80009B0013449A001A447B685B689B00B2FB7A
:101E9000F3F3234AA2FB03235B091901BA68134633
:101EA0009B0013449A001A447B685B689B00B2FB5A
:101EB000F3F21B4BA3FB02035B09642000FB03F35B
:101EC000D31A1B013233164AA2FB03235B0903F02A
:101ED000F0031944BA6813469B0013449A001A444D
:101EE0007B685B689B00B2FBF3F20D4BA3FB020324
:101EF0005B09642000FB03F3D31A1B013233084A49
:101F0000A2FB03235B0903F00F027B681B680A44F2
:101F10009A6000BF1037BD4680BD00BF0038014049
:101F20001F85EB5180B485B000AF0346FB800023D2
:101F3000FB60B7F90630842B05D0B7F90620FB68A3
:101F400013440333FB60FB6818461437BD4680BC5E
:101F5000704780B483B000AFEFF305837B607B688C
:101F6000002B14BF01230023DBB218460C37BD46FB
:101F700080BC704780B500AF01F066F900231846B9
:101F800080BDF0B587B002AF786039607B685C686F
:101F90007B681D687B681B699EB27B68B3F908305B
:101FA0001846FFF7BFFF024607F10C0301930092AA
:101FB0003B6832462946204600F0E9FF0346012BE4
:101FC00001D0002300E0FB6818461437BD46F0BD81
:101FD00080B584B000AF78607B68FB60FB68002B45
:101FE00001D0FB6800E00123184601F0F9F8002356
:101FF00018461037BD4680BD80B586B000AF78600A
:102000007B685B68033323F00303FB60142001F05B
:10201000C9FF78617B69002B46D07B681A687B69B1
:102020009A60FA687B69DA607B6900221A617B68D2
:102030001B68184601F0B6FF02467B695A607B694F
:102040005B68002B2BD07B681B68FA6802FB03F3EC
:10205000184601F0A7FF02467B691A607B691B687E
:10206000002B11D000233B6108E07B695A683B6973
:10207000134400221A703B6901333B617B681B6883
:102080003A699A42F1D30FE07B695B68184602F027
:102090004BF8786902F048F800237B6104E0786926
:1020A00002F042F800237B617B6918461837BD4671
:1020B00080BD80B58AB000AF786000237B620023CA
:1020C0003B62FFF746FF0346002B0ED0EFF3118271
:1020D0004FF0500383F31188BFF36F8FBFF34F8F1F
:1020E0007A613B617B697B6201E001F065FE002360
:1020F000FB6129E07B681A69FB6913447A6892687E
:10210000B3FBF2F102FB01F29B1ABB617B685A68D8
:10211000BB6913441B78002B13D17B685A68BB69D9
:10212000134401221A707B681B6819467B68DB68C0
:10213000BA6902FB03F30B443B627B68BA691A611C
:1021400007E0FB690133FB617B689B68FA699A428F
:10215000D0D3FFF7FEFE0346002B05D07B6AFB6061
:10216000FB6883F3118801E001F054FE3B6A1846D6
:102170002837BD4680BD80B485B000AF7860396037
:102180007B68002B01D1802330E03B68002B01D11C
:1021900080232BE07B681B683A689A4201D2802337
:1021A00024E03B687A6812689B1AFB607B68DA68F7
:1021B000FB68B3FBF2F102FB01F29B1A002B01D08A
:1021C000802313E07B68DB68FA68B2FBF3F3FB6003
:1021D0007B689B68FA689A4201D3802306E07B689B
:1021E0005A68FB68134400221A70002318461437FB
:1021F000BD4680BC704780B582B000AF7860396062
:102200007B6818687B685B680022194600F050FA0A
:10221000034618460837BD4680BD90B587B000AF6D
:10222000786039607B681B68FB607B685B683B613A
:1022300000237B617B689C680C2001F0B3FE0346A1
:1022400023607B689B681B68002B01D1002338E06A
:102250007B689B681B687A681A607B6818687B6873
:102260009B681C680022042100F022FA0346636088
:102270007B689B681B685B68002B07D17B689B6849
:102280001B68184601F050FF00231AE07B689B682A
:102290001C6807F10C031846FFF7AEFE0346A36067
:1022A0007B689B681B689B68002B07D17B689B68D9
:1022B0001B68184601F038FF002302E07B689B682A
:1022C0001B6818461C37BD4690BD80B584B000AF72
:1022D000786039607B68002B01D1002306E07B68C1
:1022E0009B681846FFF7E5FEF860FB681846103754
:1022F000BD4680BD80B584B000AF786039607B6832
:10230000002B01D180232CE00023FB60FFF721FE8E
:102310000346002B18D07B68586807F10C02394639
:10232000002300F017FB0346012B01D0FF2318E028
:10233000FB68002B14D00D4B4FF080521A60BFF396
:102340004F8FBFF36F8F0BE07B68586839460023CF
:10235000002200F005FA0346012B01D0FF2300E024
:10236000002318461037BD4680BD00BF04ED00E0D5
:1023700090B58BB000AFF860B9607A60BB68FB6164
:10238000BB68002B0AD180237B61FB681C4607F1E8
:10239000140393E8070084E8070056E000233B623B
:1023A00000237B627B68B3F1FF3F03D14FF0FF3323
:1023B0007B6209E07B68002B06D07B687B627B6ACE
:1023C000002B01D101237B62FFF7C3FD0346002BE5
:1023D0001DD0BB68586807F1200207F114030433CD
:1023E000194600F027FC0346012B02D120237B6114
:1023F00001E000237B613B6A002B1ED0154B4FF0A0
:1024000080521A60BFF34F8FBFF36F8F15E0BB6828
:10241000586807F1140304337A6A194600F02EFB5A
:102420000346012B02D120237B6106E07B6A002B4F
:1024300001D1002300E040237B61FB681C4607F1CB
:10244000140393E8070084E80700F8682C37BD46BA
:1024500090BD00BF04ED00E080B582B000AF7860B1
:1024600039607B68002B01D1802306E07B689B6884
:1024700039681846FFF77FFE034618460837BD4601
:1024800080BD80B483B000AF78607B6803F1080240
:102490007B685A607B684FF0FF329A607B6803F17B
:1024A00008027B68DA607B6803F108027B681A61C6
:1024B0007B6800221A6000BF0C37BD4680BC7047A5
:1024C00080B483B000AF78607B6800221A6100BFDF
:1024D0000C37BD4680BC704780B485B000AF7860D3
:1024E00039607B685B68FB603B68FA685A60FB6830
:1024F0009A683B689A60FB689B683A685A60FB6818
:102500003A689A603B687A681A617B681B685A1C53
:102510007B681A6000BF1437BD4680BC704780B42A
:1025200085B000AF786039603B681B68BB60BB68F2
:10253000B3F1FF3F03D17B681B69FB600CE07B6854
:102540000833FB6002E0FB685B68FB60FB685B686C
:102550001B68BA689A42F6D2FB685A683B685A60B0
:102560003B685B683A689A603B68FA689A60FB6807
:102570003A685A603B687A681A617B681B685A1C23
:102580007B681A6000BF1437BD4680BC704780B4BA
:1025900085B000AF78607B681B69FB607B685B6817
:1025A0007A6892689A607B689B687A6852685A6019
:1025B000FB685B687A689A4203D17B689A68FB681B
:1025C0005A607B6800221A61FB681B685A1EFB6810
:1025D0001A60FB681B6818461437BD4680BC7047FC
:1025E00080B584B000AF786039607B68FB60FB68C1
:1025F000002B09D14FF0500383F31188BFF36F8F85
:10260000BFF34F8FBB60FEE701F0D6FBFB681A6893
:10261000FB68DB6BF968096C01FB03F31A44FB6888
:102620005A60FB6800229A63FB681A68FB689A602C
:10263000FB681A68FB68DB6B013BF968096C01FBFE
:1026400003F31A44FB68DA60FB68FF2283F8442036
:10265000FB68FF2283F845203B68002B14D1FB6800
:102660001B69002B1AD0FB681033184601F016F8CE
:102670000346002B12D00D4B4FF080521A60BFF36F
:102680004F8FBFF36F8F09E0FB6810331846FFF7D9
:10269000F8FEFB6824331846FFF7F3FE01F0BAFB9F
:1026A000012318461037BD4680BD00BF04ED00E091
:1026B00080B58AB002AFF860B9601346FB71FB6861
:1026C000002B09D14FF0500383F31188BFF36F8FB4
:1026D000BFF34F8F3B61FEE7BB68002B02D10023A5
:1026E000FB6104E0FB68BA6802FB03F3FB61FB6972
:1026F0004833184601F056FCB861BB69002B0BD07B
:10270000BB6948337B61FA79BB69009313467A69E8
:10271000B968F86800F005F8BB6918462037BD466F
:1027200080BD80B584B000AFF860B9607A60FB709E
:10273000BB68002B03D1BB69BA691A6002E0BB69B0
:102740007A681A60BB69FA68DA63BB69BA681A64A6
:102750000121B869FFF744FF00BF1037BD4680BDB7
:1027600080B58EB000AFF860B9607A603B6000233E
:102770007B63FB683B633B6B002B09D14FF050033D
:1027800083F31188BFF36F8FBFF34F8FBB62FEE7F8
:10279000BB68002B03D13B6B1B6C002B01D10123C9
:1027A00000E00023002B09D14FF0500383F3118880
:1027B000BFF36F8FBFF34F8F7B62FEE73B68022B47
:1027C00003D13B6BDB6B012B01D1012300E0002324
:1027D000002B09D14FF0500383F31188BFF36F8FA3
:1027E000BFF34F8F3B62FEE701F0F4F80346002B86
:1027F00002D17B68002B01D1012300E00023002BD4
:1028000009D14FF0500383F31188BFF36F8FBFF3EB
:102810004F8FFB61FEE701F0CFFA3B6B9A6B3B6B8E
:10282000DB6B9A4202D33B68022B29D13A68B96824
:10283000386B00F07CFAF8623B6B5B6A002B10D0BF
:102840003B6B2433184600F029FF0346002B13D0BE
:102850003F4B4FF080521A60BFF34F8FBFF36F8F23
:102860000AE0FB6A002B07D0394B4FF080521A6008
:10287000BFF34F8FBFF36F8F01F0CCFA012363E0FA
:102880007B68002B03D101F0C5FA00235CE07B6B71
:10289000002B06D107F11403184600F061FF012355
:1028A0007B6301F0B7FA00F015FD01F085FA3B6B90
:1028B00093F844305BB2B3F1FF3F03D13B6B00228E
:1028C00083F844203B6B93F845305BB2B3F1FF3F94
:1028D00003D13B6B002283F8452001F09BFA3A1D9F
:1028E00007F114031146184600F050FF0346002B71
:1028F00024D1386B00F033FB0346002B18D03B6B20
:1029000010337A681146184600F0A4FE386B00F0C8
:102910009EFA00F0EDFC0346002B7FF47CAF0C4BDD
:102920004FF080521A60BFF34F8FBFF36F8F72E783
:10293000386B00F08CFA00F0DBFC6CE7386B00F0D1
:1029400086FA00F0D5FC002318463837BD4680BD16
:1029500004ED00E080B58EB000AFF860B9607A6039
:102960003B60FB683B633B6B002B09D14FF050038E
:1029700083F31188BFF36F8FBFF34F8F7B62FEE746
:10298000BB68002B03D13B6B1B6C002B01D10123D7
:1029900000E00023002B09D14FF0500383F311888E
:1029A000BFF36F8FBFF34F8F3B62FEE73B68022B95
:1029B00003D13B6BDB6B012B01D1012300E0002332
:1029C000002B09D14FF0500383F31188BFF36F8FB1
:1029D000BFF34F8FFB61FEE701F0A8FAEFF311821E
:1029E0004FF0500383F31188BFF36F8FBFF34F8F06
:1029F000BA617B61BB69FB623B6B9A6B3B6BDB6BC8
:102A00009A4202D33B68022B2CD13B6B93F84530A2
:102A100087F82B303A68B968386B00F088F997F975
:102A20002B30B3F1FF3F12D13B6B5B6A002B16D00A
:102A30003B6B2433184600F031FE0346002B0ED0CA
:102A40007B68002B0BD07B6801221A6007E097F8A7
:102A50002B300133DBB25AB23B6B83F845200123A4
:102A60007B6301E000237B63FB6A3B613B6983F38B
:102A700011887B6B18463837BD4680BD80B58CB059
:102A800000AFF860B9607A600023FB62FB68BB624C
:102A9000BB6A002B09D14FF0500383F31188BFF3B9
:102AA0006F8FBFF34F8F3B62FEE7BB68002B03D1F4
:102AB000BB6A1B6C002B01D1012300E00023002B1B
:102AC00009D14FF0500383F31188BFF36F8FBFF329
:102AD0004F8FFB61FEE700F07DFF0346002B02D124
:102AE0007B68002B01D1012300E00023002B09D1DA
:102AF0004FF0500383F31188BFF36F8FBFF34F8FF5
:102B0000BB61FEE701F058F9BB6A9B6B7B627B6A95
:102B1000002B1FD0B968B86A00F073F97B6A5A1E9F
:102B2000BB6A9A63BB6A1B69002B0FD0BB6A103368
:102B3000184600F0B3FD0346002B07D03C4B4FF086
:102B400080521A60BFF34F8FBFF36F8F01F062F9AD
:102B5000012369E07B68002B03D101F05BF90023BE
:102B600062E0FB6A002B06D107F11003184600F063
:102B7000F7FD0123FB6201F04DF900F0ABFB01F022
:102B80001BF9BB6A93F844305BB2B3F1FF3F03D14A
:102B9000BB6A002283F84420BB6A93F845305BB2DD
:102BA000B3F1FF3F03D1BB6A002283F8452001F057
:102BB00031F93A1D07F110031146184600F0E6FD01
:102BC0000346002B23D1B86A00F093F90346002B8B
:102BD00017D0BB6A24337A681146184600F03AFDD4
:102BE000B86A00F034F900F083FB0346002B89D16A
:102BF0000F4B4FF080521A60BFF34F8FBFF36F8FB0
:102C000080E7B86A00F023F900F072FB7AE7B86A4F
:102C100000F01DF900F06CFBB86A00F06AF9034699
:102C2000002B3FF46FAF002318463037BD4680BD00
:102C300004ED00E080B58EB000AFF860B9607A6056
:102C4000FB683B633B6B002B09D14FF0500383F3D0
:102C50001188BFF36F8FBFF34F8F3B62FEE7BB68F6
:102C6000002B03D13B6B1B6C002B01D1012300E037
:102C70000023002B09D14FF0500383F31188BFF3D9
:102C80006F8FBFF34F8FFB61FEE701F04FF9EFF35A
:102C900011824FF0500383F31188BFF36F8FBFF39E
:102CA0004F8FBA617B61BB69FB623B6B9B6BBB6205
:102CB000BB6A002B2FD03B6B93F8443087F827304A
:102CC000B968386B00F09DF8BB6A5A1E3B6B9A637B
:102CD00097F92730B3F1FF3F12D13B6B1B69002BF3
:102CE00016D03B6B1033184600F0D8FC0346002B7F
:102CF0000ED07B68002B0BD07B6801221A6007E0A6
:102D000097F827300133DBB25AB23B6B83F844208B
:102D100001237B6301E000237B63FB6A3B613B692A
:102D200083F311887B6B18463837BD4680BD80B56C
:102D300086B000AFF860B9607A6000237B61FB6801
:102D40009B6B3B61FB681B6C002B0DD1FB681B6808
:102D5000002B4DD1FB685B68184600F059FE786186
:102D6000FB6800225A6043E07B68002B19D1FB68A6
:102D70009868FB681B6C1A46B96801F03BFFFB685A
:102D80009A68FB681B6C1A44FB689A60FB689A6837
:102D9000FB685B689A422BD3FB681A68FB689A60F1
:102DA00026E0FB68D868FB681B6C1A46B96801F01E
:102DB00021FFFB68DA68FB681B6C5B421A44FB6806
:102DC000DA60FB68DA68FB681B689A4207D2FB6826
:102DD0005A68FB681B6C5B421A44FB68DA607B68CC
:102DE000022B05D13B69002B02D03B69013B3B61C3
:102DF0003B695A1CFB689A637B6918461837BD46C5
:102E000080BD80B582B000AF786039607B681B6C94
:102E1000002B18D07B68DA687B681B6C1A447B68CF
:102E2000DA607B68DA687B685B689A4203D37B6808
:102E30001A687B68DA607B68D9687B681B6C1A4605
:102E4000386801F0D7FE00BF0837BD4680BD80B5A9
:102E500084B000AF786000F0AFFF7B6893F8453036
:102E6000FB7311E07B685B6A002B12D07B68243314
:102E7000184600F013FC0346002B01D000F0E6FCDE
:102E8000FB7B013BDBB2FB7397F90F30002BE9DCD6
:102E900000E000BF7B68FF2283F8452000F0BAFF06
:102EA00000F08AFF7B6893F84430BB7311E07B68C5
:102EB0001B69002B12D07B681033184600F0EEFB24
:102EC0000346002B01D000F0C1FCBB7B013BDBB211
:102ED000BB7397F90E30002BE9DC00E000BF7B6884
:102EE000FF2283F8442000F095FF00BF1037BD4655
:102EF00080BD80B584B000AF786000F05DFF7B6876
:102F00009B6B002B02D10123FB6001E00023FB60DF
:102F100000F080FFFB6818461037BD4680BD80B4C6
:102F200085B000AF78607B68002B09D14FF050036B
:102F300083F31188BFF36F8FBFF34F8FBB60FEE742
:102F40007B689B6B002B02D10123FB6001E0002317
:102F5000FB60FB6818461437BD4680BC704780B5DF
:102F600084B000AF786000F027FF7B689A6B7B68C5
:102F7000DB6B9A4202D10123FB6001E00023FB607E
:102F800000F048FFFB6818461037BD4680BD80B58D
:102F90008CB004AFF860B9603B601346FB80FB88DF
:102FA0009B00184600F0FEFF78617B69002B0ED075
:102FB000542000F0F7FFF861FB69002B03D0FB6998
:102FC0007A691A6305E0786901F0AEF801E0002340
:102FD000FB61FB69002B13D0FA8800230393FB6984
:102FE0000293FB6A0193BB6A00933B68B968F86877
:102FF00000F00EF8F86900F089F80123BB6102E0E7
:103000004FF0FF33BB61BB6918462037BD4680BD1A
:1030100080B588B000AFF860B9607A603B603B6B08
:103020001A6B7B6803F18043013B9B001344BB6137
:10303000BB6923F00703BB61BB6903F00703002BE7
:1030400009D04FF0500383F31188BFF36F8FBFF3A4
:103050004F8F7B61FEE70023FB6112E0BA68FB69DA
:10306000134419783A6BFB69134434330A461A70D7
:10307000BA68FB6913441B78002B06D0FB69013347
:10308000FB61FB690F2BE9D900E000BF3B6B00221D
:1030900083F84320BB6A062B01D90623BB623B6B36
:1030A000BA6ADA623B6BBA6A5A643B6B00229A6472
:1030B0003B6B04331846FFF703FA3B6B1833184693
:1030C000FFF7FEF93B6B3A6B1A61BB6AC3F107026B
:1030D0003B6B9A613B6B3A6B5A623B6B0022DA6442
:1030E0003B6B002283F850203A68F968B86900F019
:1030F00079FD02463B6B1A60FB6A002B02D0FB6A2B
:103100003A6B1A6000BF2037BD4680BD80B582B0E3
:1031100000AF786000F050FE2A4B1B680133294A4B
:103120001360294B1B68002B09D1274A7B68136069
:10313000244B1B68012B10D100F0ACFB0DE0234B9E
:103140001B68002B09D1204B1B68DA6A7B68DB6A9D
:103150009A4202D81C4A7B6813601D4B1B680133DE
:103160001B4A13607B68DB6A01229A40194B1B687B
:103170001343184A13607B68DA6A13469B001344B2
:103180009B00154A1A447B68043319461046FFF722
:10319000A3F900F03FFE0D4B1B68002B0ED00A4B2D
:1031A0001B68DA6A7B68DB6A9A4207D20B4B4FF0E6
:1031B00080521A60BFF34F8FBFF36F8F00BF083785
:1031C000BD4680BD90010020900000209C010020A1
:1031D000AC010020980100209400002004ED00E0E4
:1031E00080B584B000AF78600023FB607B68002B63
:1031F00016D0134B1B68002B09D04FF0500383F3FC
:103200001188BFF36F8FBFF34F8FBB60FEE700F0F5
:1032100061F80021786800F07FFC00F069F8F86040
:10322000FB68002B07D1074B4FF080521A60BFF3A9
:103230004F8FBFF36F8F00BF1037BD4680BD00BFFB
:10324000B801002004ED00E080B586B002AF1B4B52
:103250000193002300930023802219491948FFF7A6
:1032600096FEF860FB68012B15D14FF0500383F3F5
:103270001188BFF36F8FBFF34F8FBB60124B4FF0BE
:10328000FF321A60114B01221A60114B00221A60A2
:1032900000F022FD0DE0FB68B3F1FF3F09D14FF0D4
:1032A000500383F31188BFF36F8FBFF34F8F7B60A1
:1032B000FEE700BF1037BD4680BD00BFB40100204F
:1032C0005854000865380008B00100209C01002017
:1032D0009401002080B400AF044B1B680133034A03
:1032E000136000BFBD4680BC704700BFB80100201E
:1032F00080B584B000AF0023FB600023BB60414B6E
:103300001B68002B09D14FF0500383F31188BFF3E2
:103310006F8FBFF34F8F3B60FEE700F04DFD394BE1
:103320001B68013B374A1360364B1B68002B61D189
:10333000354B1B68002B5DD02EE0344BDB68DB681F
:10334000FB60FB6818331846FFF721F9FB6804336C
:103350001846FFF71CF9FB68DB6A01229A402C4BE8
:103360001B6813432A4A1360FB68DA6A13469B0002
:1033700013449B00274A1A44FB680433194610463D
:10338000FFF7AAF8FB68DA6A234B1B68DB6A9A42EC
:1033900002D3224B01221A601C4B1B68002BCCD19C
:1033A000FB68002B01D000F0F1FA1D4B1B687B601D
:1033B0007B68002B10D000F037F80346002B02D0BA
:1033C000164B01221A607B68013B7B607B68002BF7
:1033D000F1D1134B00221A60104B1B68002B09D04F
:1033E0000123BB600F4B4FF080521A60BFF34F8F29
:1033F000BFF36F8F00F00EFDBB6818461037BD4657
:1034000080BD00BFB80100209001002050010020C5
:10341000980100209400002090000020A4010020CA
:10342000A001002004ED00E080B586B000AF0023CD
:103430007B61504B1B68002B40F08C804E4B1B680F
:1034400001333B614C4A3B6913603B69002B1FD140
:103450004A4B1B681B68002B09D04FF0500383F3C5
:103460001188BFF36F8FBFF34F8F3B60FEE7434B75
:103470001B68FB60424B1B68404A1360404AFB6874
:103480001360404B1B6801333E4A136000F07EFA24
:103490003D4B1B683A699A424DD3384B1B681B68F9
:1034A000002B01D1012300E00023002B04D0364B78
:1034B0004FF0FF321A603EE0304B1B68DB68DB6880
:1034C000BB60BB685B687B603A697B689A4203D2E9
:1034D0002D4A7B6813602EE0BB6804331846FFF763
:1034E00056F8BB689B6A002B04D0BB68183318469B
:1034F000FFF74DF8BB68DB6A01229A40234B1B683B
:103500001343224A1360BB68DA6A13469B001344D4
:103510009B001F4A1A44BB68043319461046FEF745
:10352000DBFFBB68DA6A1B4B1B68DB6A9A42B4D3C9
:1035300001237B61B1E7174B1B68DA6A1449134614
:103540009B0013449B000B441B68012B07D90123EC
:103550007B6104E0104B1B6801330F4A13600F4B73
:103560001B68002B01D001237B617B69184618374B
:10357000BD4680BDB8010020940100204801002014
:103580004C010020A8010020B0010020980100207B
:103590009400002090000020A0010020A401002041
:1035A00080B487B000AF264B1B68002B03D0254B9F
:1035B00001221A603EE0234B00221A60224B1B6856
:1035C000FB60FB68B3FA83F3FB72FB7AC3F11F0362
:1035D0007B611E497A6913469B0013449B000B4490
:1035E0001B68002B09D14FF0500383F31188BFF300
:1035F0006F8FBFF34F8F7B60FEE77A6913469B00A6
:1036000013449B00114A13443B613B695B685A6851
:103610003B695A603B695A683B6908339A4204D156
:103620003B695B685A683B695A603B695B68DB6869
:10363000074A136000BF1C37BD4680BC704700BFFF
:10364000B8010020A401002098010020940000206F
:103650009000002080B584B000AF786039607B684E
:10366000002B09D14FF0500383F31188BFF36F8F04
:10367000BFF34F8FFB60FEE7074B1B6818331946FB
:103680007868FEF74CFF0121386800F045FA00BF6A
:103690001037BD4680BD00BF9000002080B586B0C9
:1036A00000AF78607B68DB68DB683B613B69002BBF
:1036B00009D14FF0500383F31188BFF36F8FBFF32D
:1036C0004F8FFB60FEE73B6918331846FEF75FFF3C
:1036D0001D4B1B68002B1CD13B6904331846FEF7B9
:1036E00056FF3B69DB6A01229A40184B1B68134363
:1036F000164A13603B69DA6A13469B0013449B0029
:10370000134A1A443B69043319461046FEF7E4FE97
:1037100005E03B69183319460E48FEF7DDFE3B69AC
:10372000DA6A0D4B1B68DB6A9A4205D901237B617B
:103730000A4B01221A6001E000237B617B69184675
:103740001837BD4680BD00BFB80100209801002099
:10375000940000205001002090000020A4010020CF
:1037600080B483B000AF7860064B1A687B681A603B
:10377000054B1A687B685A6000BF0C37BD4680BC99
:10378000704700BFA80100209401002080B588B0D8
:1037900000AF786039607B68002B09D14FF050038F
:1037A00083F31188BFF36F8FBFF34F8F3B61FEE749
:1037B0003B68002B09D14FF0500383F31188BFF30E
:1037C0006F8FBFF34F8FFB60FEE700F0F5FA1D4BE4
:1037D0001B68BB617B685B68BA69D31A7B613B6815
:1037E0001B68B3F1FF3F02D10023FB6123E07B683C
:1037F0001A68154B1B689A4207D07B685B68BA69E8
:103800009A4202D30123FB6115E03B681B687A6989
:103810009A420BD23B681A687B69D21A3B681A60DD
:103820007868FFF79DFF0023FB6104E03B680022FE
:103830001A600123FB6100F0EDFAFB69184620379E
:10384000BD4680BD94010020A801002080B400AFD7
:10385000034B01221A6000BFBD4680BC704700BF09
:10386000A401002080B582B000AF786000F052F86B
:10387000064B1B68012BF9D9054B4FF080521A609B
:10388000BFF34F8FBFF36F8FF0E700BF94000020AE
:1038900004ED00E080B582B000AF00237B600CE057
:1038A0007A6813469B0013449B00124A134418463F
:1038B000FEF7E7FD7B6801337B607B68062BEFD961
:1038C0000D48FEF7DEFD0D48FEF7DBFD0C48FEF768
:1038D000D8FD0C48FEF7D5FD0B48FEF7D2FD0B4B8B
:1038E000054A1A600A4B054A1A6000BF0837BD46F0
:1038F00080BD00BF94000020200100203401002082
:1039000050010020640100207C01002048010020BB
:103910004C01002080B582B000AF19E000F04CFAF5
:103920000F4BDB68DB687B607B6804331846FEF76F
:103930002EFE0C4B1B68013B0A4A13600A4B1B68A6
:10394000013B094A136000F065FA786800F00EF850
:10395000054B1B68002BE1D100BF0837BD4680BD79
:1039600064010020900100207801002080B582B021
:1039700000AF78607B681B6B184600F0D5FB786859
:1039800000F0D2FB00BF0837BD4680BD80B483B0D5
:1039900000AF0E4B1B681B68002B01D1012300E018
:1039A0000023002B04D00A4B4FF0FF321A6008E0CE
:1039B000064B1B68DB68DB687B607B685B68044ADE
:1039C000136000BF0C37BD4680BC70474801002023
:1039D000B001002080B483B000AF0B4B1B68002BFC
:1039E00002D101237B6008E0084B1B68002B02D149
:1039F00002237B6001E000237B607B6818460C3764
:103A0000BD4680BC704700BF9C010020B80100206B
:103A100080B586B000AF78607B683B6100237B6136
:103A20007B68002B6CD0394B1B683A699A4209D0ED
:103A30004FF0500383F31188BFF36F8FBFF34F8FA5
:103A4000FB60FEE73B699B6C002B09D14FF05003F4
:103A500083F31188BFF36F8FBFF34F8FBB60FEE717
:103A60003B699B6C5A1E3B699A643B69DA6A3B6905
:103A70005B6C9A4244D03B699B6C002B40D13B6904
:103A800004331846FEF783FD0346002B15D13B692E
:103A9000DA6A1F4913469B0013449B000B441B68C2
:103AA000002B0AD13B69DB6A012202FA03F3DA43F5
:103AB000184B1B681340174A13603B695A6C3B69EB
:103AC000DA623B69DB6AC3F107023B699A613B69D1
:103AD000DB6A01229A400F4B1B6813430D4A1360A7
:103AE0003B69DA6A13469B0013449B00084A1A4458
:103AF0003B69043319461046FEF7EEFC01237B6157
:103B00007B6918461837BD4680BD00BF9000002075
:103B1000940000209801002080B584B000AF786048
:103B20003960294B1B68FB60284B1B68043318461F
:103B3000FEF72DFD0346002B0BD1244B1B68DB6ADF
:103B4000012202FA03F3DA43214B1B681340204A97
:103B500013607B68B3F1FF3F0AD13B68002B07D0AD
:103B60001A4B1B68043319461A48FEF7B5FC26E0C9
:103B7000FA687B681344BB60144B1B68BA685A60D0
:103B8000BA68FB689A4209D2134B1A680F4B1B683C
:103B9000043319461046FEF7C2FC10E00F4B1A68BA
:103BA0000A4B1B68043319461046FEF7B8FC0C4B51
:103BB0001B68BA689A4202D2094ABB68136000BF08
:103BC0001037BD4680BD00BF94010020900000204A
:103BD000980100207C0100204C01002048010020B9
:103BE000B001002080B485B000AFF860B9607A60A1
:103BF000FB68043BFB60FB684FF080721A60FB6857
:103C0000043BFB60BB6823F00102FB681A60FB68A1
:103C1000043BFB60084AFB681A60FB68143BFB60CE
:103C20007A68FB681A60FB68203BFB60FB681846FB
:103C30001437BD4680BC70473D3C000880B485B059
:103C400000AF00237B60104B1B68B3F1FF3F09D02E
:103C50004FF0500383F31188BFF36F8FBFF34F8F83
:103C6000FB60FEE74FF0500383F31188BFF36F8FC3
:103C7000BFF34F8FBB6000BF7B68002BFCD000BF41
:103C80001437BD4680BC70470800002000000000CB
:103C9000074B19680868B0E8F00F80F30988BFF394
:103CA0006F8F4FF0000080F311884EF00D0E7047BB
:103CB0009000002000BF00BF06480068006880F345
:103CC000088862B661B6BFF34F8FBFF36F8F00DF16
:103CD00000BF00BF08ED00E080B584B000AF314BFD
:103CE000FB60FB681B78DBB27B60FB68FF221A700D
:103CF000FB681B78DBB2FB70FB78DBB203F0500390
:103D0000DAB2294B1A70294B07221A6009E0274BB7
:103D10001B68013B254A1360FB78DBB25B00DBB21A
:103D2000FB70FB78DBB203F08003802BEFD01F4BDE
:103D30001B68C3F10703042B09D04FF0500383F332
:103D40001188BFF36F8FBFF34F8FBB60FEE7174B38
:103D50001B681B02154A1360144B1B6803F4E063D5
:103D6000124A13607B68DAB2FB681A70104B1B684A
:103D70000F4A43F4700313600D4B1B680C4A43F069
:103D80007043136000F0B0F80A4B00221A60FFF78E
:103D900093FFFFF705FCFFF751FF0023184610378C
:103DA000BD4680BD00E400E0BC010020C001002051
:103DB00020ED00E00800002080B483B000AF4FF099
:103DC000500383F31188BFF36F8FBFF34F8F7B6076
:103DD0000E4B1B6801330D4A13600C4B1B68012B03
:103DE0000ED10B4B1B68DBB2002B09D04FF05003F8
:103DF00083F31188BFF36F8FBFF34F8F3B60FEE7F4
:103E000000BF0C37BD4680BC704700BF08000020D3
:103E100004ED00E080B483B000AF104B1B68002BB2
:103E200009D14FF0500383F31188BFF36F8FBFF3B5
:103E30004F8F7B60FEE7094B1B68013B074A13600D
:103E4000064B1B68002B04D100233B603B6883F3C7
:103E5000118800BF0C37BD4680BC704708000020A9
:103E6000EFF30980BFF36F8F0D4B1A6820E9F00F55
:103E700010602DE908404FF0500080F31188FFF7E3
:103E80008FFB4FF0000080F31188BDE808401968EF
:103E90000868B0E8F00F80F30988BFF36F8F7047B0
:103EA0009000002000BF00BF80B582B000AF4FF08F
:103EB000500383F31188BFF36F8FBFF34F8F7B6085
:103EC000FFF7B2FA0346002B03D0064B4FF08052A7
:103ED0001A6000233B603B6883F3118800BF0837FA
:103EE000BD4680BD04ED00E080B400AF0A4B002267
:103EF0001A600A4B00221A60094B1B68094AA2FB90
:103F000003239B09084A013B1360034B07221A60F5
:103F100000BFBD4680BC704710E000E018E000E044
:103F20000C000020D34D621014E000E080B485B096
:103F300000AFEFF30583FB60FB680F2B13D9154A25
:103F4000FB6813441B78FB72134B1B78FA7A9A4276
:103F500009D24FF0500383F31188BFF36F8FBFF383
:103F60004F8F7B60FEE70D4B1B6803F4E0620C4B48
:103F70001B689A4209D94FF0500383F31188BFF3AD
:103F80006F8FBFF34F8F3B60FEE700BF1437BD4616
:103F900080BC7047F0E300E0BC0100200CED00E0C5
:103FA000C001002080B58AB000AF78600023FB61BB
:103FB000FFF790F9574B1B68002B01D100F00CF96B
:103FC000554B1A687B681340002B40F08C807B684F
:103FD000002B1CD008227B6813447B607B6803F0B5
:103FE0000703002B13D07B6823F0070308337B60A3
:103FF0007B6803F00703002B09D04FF0500383F3D5
:104000001188BFF36F8FBFF34F8F7B61FEE77B6833
:10401000002B68D0414B1B687A689A4263D8404BAA
:104020003B623F4B1B687B6204E07B6A3B627B6ABE
:104030001B687B627B6A5B687A689A4203D97B6AF9
:104040001B68002BF1D1334B1B687A6A9A424AD025
:104050003B6A1B6808221344FB617B6A1A683B6A4F
:104060001A607B6A5A687B68D21A08235B009A42FE
:104070001ED97A6A7B681344BB61BB6903F00703EE
:10408000002B09D04FF0500383F31188BFF36F8FDB
:10409000BFF34F8F3B61FEE77B6A5A687B68D21A99
:1040A000BB695A607B6A7A685A60B86900F0F6F8B2
:1040B0001A4B1A687B6A5B68D31A184A1360174B4D
:1040C0001A68184B1B689A4203D2144B1B68154A96
:1040D00013607B6A5A68104B1B681A437B6A5A60EC
:1040E0007B6A00221A60FFF703F9FB6903F00703FC
:1040F000002B09D04FF0500383F31188BFF36F8F6B
:10410000BFF34F8FFB60FEE7FB6918462837BD46BB
:1041100080BD00BFCC0D0020D80D0020D00D0020A8
:10412000C40D0020D40D002080B586B000AF7860AB
:104130007B687B617B68002B46D008235B427A69F1
:1041400013447B617B693B613B695A68204B1B6868
:104150001340002B09D14FF0500383F31188BFF3B4
:104160006F8FBFF34F8FFB60FEE73B691B68002B2F
:1041700009D04FF0500383F31188BFF36F8FBFF363
:104180004F8FBB60FEE73B695A68114B1B681340B9
:10419000002B19D03B691B68002B15D13B695A686D
:1041A0000B4B1B68DB431A403B695A60FFF792F8E0
:1041B0003B695A68074B1B681344064A1360386909
:1041C00000F06CF8FFF794F800BF1837BD4680BDCB
:1041D000D80D0020D00D002080B485B000AF4FF482
:1041E0004063BB60274BFB60FB6803F00703002BB9
:1041F0000CD0FB680733FB60FB6823F00703FB6010
:10420000BA68FB68D31A1F4A1344BB60FB687B6023
:104210001D4A7B6813601C4B00225A607B68BA6899
:104220001344FB600822FB689B1AFB60FB6823F0C9
:104230000703FB60FB68154A1360144B1B680022E0
:104240005A60124B1B6800221A607B683B603B6817
:10425000FA68D21A3B685A600C4B1A683B681A60BD
:104260003B685B680A4A13603B685B68094A1360F5
:10427000094B4FF000421A6000BF1437BD4680BCA6
:10428000704700BFC4010020C40D0020CC0D0020E9
:10429000D40D0020D00D0020D80D002080B485B0B2
:1042A00000AF7860274BFB6002E0FB681B68FB6097
:1042B000FB681B687A689A42F7D8FB68BB60FB68AA
:1042C0005B68BA6813447A689A4208D1FB685A68F6
:1042D0007B685B681A44FB685A60FB687B607B689C
:1042E000BB607B685B68BA681A44FB681B689A42CB
:1042F00018D1FB681A68144B1B689A420DD07B6872
:104300005A68FB681B685B681A447B685A60FB68E4
:104310001B681A687B681A6008E00B4B1A687B6898
:104320001A6003E0FB681A687B681A60FA687B68A9
:104330009A4202D0FB687A681A6000BF1437BD4603
:1043400080BC7047C40D0020CC0D0020B0B596B0E5
:1043500000AF2A4A07F1500392E8030083E8030004
:1043600007F1500300211846FDF745FF0246244B94
:104370001A6004233B6402237B6407F14C03BB6493
:1043800007F1400300211846FDF747FF02461D4B89
:104390001A601D4B07F12C041D460FCD0FC42B686E
:1043A000236007F12C0300211846FDF7EAFD0246C1
:1043B000164B1A60164B07F118041D460FCD0FC49B
:1043C0002B68236007F1180300211846FDF7D9FD7B
:1043D0000246104B1A60104B3C1D1D460FCD0FC4FA
:1043E0002B6823603B1D00211846FDF7CAFD0246DD
:1043F0000A4B1A6000BF5837BD46B0BD6054000874
:10440000740E0020640E0020745400081C0E00205E
:1044100094540008140E0020B0540008780E0020B8
:10442000B0B584B000AF78606A4B1B684FF0FF31C5
:104430001846FDF74AFF0246674B1A60664B1B6839
:1044400003221A80634B1A68634B1B681946104697
:10445000FDF750FF5F4B1B684FF0FF311846FDF72B
:1044600034FF02465C4B1A605B4B1B6802221A80C9
:10447000584B1A68584B1B6819461046FDF73AFF0F
:10448000544B1B684FF0FF311846FDF71EFF0246E4
:10449000514B1A60504B1B6801221A804D4B1A6811
:1044A0004D4B1B6819461046FDF724FF494B1B680E
:1044B0004FF0FF311846FDF708FF0246464B1A60E1
:1044C000454B1B6800221A80424B1A68424B1B68FE
:1044D00019461046FDF70EFF404A414B14461D4653
:1044E0000FCD0FC42B6823803C48FBF7A1FE034689
:1044F0009AB24FF0FF3339493A48FDF720F9354B6E
:104500001B681846FEF70BFDF860324B1B68184617
:10451000FEF705FD0346002B57D12E4B1B684FF0CD
:10452000FF311846FDF7D1FE02462B4B1A602A4B8D
:104530001B6803221A80274B1A68274B1B681946F1
:104540001046FDF7D7FE234B1B684FF0FF3118468E
:10455000FDF7BBFE0246204B1A601F4B1B68022270
:104560001A801C4B1A681C4B1B6819461046FDF735
:10457000C1FE184B1B684FF0FF311846FDF7A5FE32
:104580000246154B1A60144B1B6801221A80114B0E
:104590001A68114B1B6819461046FDF7ABFE0D4B10
:1045A0001B684FF0FF311846FDF78FFE02460A4B9D
:1045B0001A60094B1B6800221A80064B1A68064BCA
:1045C0001B6819461046FDF795FE4FF4FA70FDF78B
:1045D000FFFC94E7640E0020200E0020DC0D00207C
:1045E000C4540008240E002090B587B000AF786155
:1045F0004FF47A70FDF7ECFC184B1968184C3B46E9
:104600004FF0FF321846FDF7B3FE3B4693E8070034
:1046100084E80700124B1B68202BEDD1104B5B6820
:10462000104A13600F4B1B681B881A460E490F482F
:1046300000F0F4FA0D48FBF7FBFD03469AB24FF089
:10464000FF330A490A48FDF77AF8044B1A68054B0C
:104650001B6819461046FDF7FFFECDE7640E0020EB
:10466000680E0020180E0020D8540008DC0D002031
:10467000240E002080B582B000AF78604FF48071C6
:104680000548FCF79BF96420FBF70CFE0421034866
:10469000FCF794F9F2E700BF000801400014014064
:1046A00080B586B000AF07F1080300221A605A6097
:1046B0009A60DA60214B9B69204A43F020039361A2
:1046C0001E4B9B6903F020037B607B681B4B9B693F
:1046D0001A4A43F004039361184B9B6903F00403E7
:1046E0003B603B6800224FF480711548FCF74EF99F
:1046F000002204211348FCF749F94FF48073BB6092
:104700000123FB6000233B6102237B6107F1080367
:1047100019460B48FBF7D0FF0423BB600123FB6065
:1047200000233B6102237B6107F10803194605481A
:10473000FBF7C2FF00BF1837BD4680BD0010024026
:10474000000801400014014080B500AFFBF778FD80
:1047500000F009F8FFF7A4FF00F07EF9FFF7F6FD7F
:10476000FDF708FCFEE780B590B000AF07F1180335
:1047700028220021184600F048FA3B1D00221A604A
:104780005A609A60DA601A610123BB614FF480338A
:10479000FB6100233B620123BB6202237B634FF476
:1047A0008033BB634FF4E013FB6307F11803184633
:1047B000FCF71CF90346002B01D000F02BF80F2367
:1047C0007B600223BB600023FB604FF480633B618E
:1047D00000237B613B1D02211846FCF787FB034643
:1047E000002B01D000F016F800BF4037BD4680BD59
:1047F00080B582B000AF78607B681B68044A934242
:1048000001D1FBF733FD00BF0837BD4680BD00BFB7
:104810000004004080B400AF00BFBD4680BC7047BC
:1048200080B584B000AF184B9B69174A43F0010371
:104830009361154B9B6903F00103BB60BB68124B8E
:10484000DB69114A43F08053D3610F4BDB6903F0FE
:1048500080537B607B6800220F216FF00100FBF723
:10486000F8FD0A4B5B68FB60FB6823F0E063FB60CC
:10487000FB6843F00073FB60044AFB68536000BFB1
:104880001037BD4680BD00BF00100240000001404F
:1048900080B58CB000AF78600023FB620023BB6260
:1048A000002279681D20FBF7D4FD1D20FBF7EDFDEC
:1048B0001F4BDB691E4A43F00203D3611C4BDB69CB
:1048C00003F00203FB60FB6807F1100207F1140319
:1048D00011461846FCF788FCFCF75EFC03465B00BB
:1048E000FB62FB6A134AA2FB03239B0C013BBB62E6
:1048F000114B124A1A60104B40F2E732DA600E4A4E
:10490000BB6A53600C4B00221A610B4B00229A6069
:104910000948FCF7B7FC0346002B04D10648FCF716
:10492000E5FC034600E0012318463037BD4680BD54
:104930000010024083DE1B437C0E00200004004078
:1049400080B400AF00BFBD4680BC704780B400AFEC
:10495000FEE780B400AFFEE780B400AFFEE780B4AE
:1049600000AFFEE780B400AF00BFBD4680BC70471B
:1049700080B500AF0248FCF7DCFC00BF80BD00BF83
:104980007C0E002080B500AF0248FCF771FF00BF2D
:1049900080BD00BF240E002080B584B000AF7860D9
:1049A000114B1B68002B02D10F4B104A1A600E4BA3
:1049B0001B68FB600C4B1A687B6813446A46934281
:1049C00007D900F0EDF802460C2313604FF0FF33D7
:1049D00006E0054B1A687B681344034A1360FB68C2
:1049E00018461037BD4680BD040E0020C00E0020C2
:1049F00080B400AF154B1B68144A43F001031360E9
:104A0000124B5A681149124B13404B600F4B1B68F5
:104A10000E4A23F0847323F4803313600B4B1B681E
:104A20000A4A23F480231360084B5B68074A23F487
:104A3000FE035360054B4FF41F029A60054B4FF085
:104A400000629A6000BFBD4680BC70470010024003
:104A50000000FFF800ED00E080B500AF114B124AF6
:104A60001A60104B4FF4E1325A600E4B00229A60EC
:104A70000C4B0022DA600B4B00221A61094B0C220E
:104A80005A61084B00229A61064B0022DA61054800
:104A9000FCF708FE0346002B01D0FFF7BBFE00BF6A
:104AA00080BD00BF240E00200038014080B588B0D2
:104AB00000AF786007F1100300221A605A609A6014
:104AC000DA607B681B68204A934239D11F4B9B698F
:104AD0001E4A43F4804393611C4B9B6903F480435B
:104AE000FB60FB68194B9B69184A43F00403936110
:104AF000164B9B6903F00403BB60BB684FF4007363
:104B00003B6102237B610323FB6107F1100319461C
:104B10000F48FBF7D1FD4FF480633B6100237B61BD
:104B20000023BB6107F1100319460948FBF7C4FDD8
:104B3000002205212520FBF78CFC2520FBF7A5FC96
:104B400000BF2037BD4680BD003801400010024044
:104B500000080140002103E00B4B5B584350043137
:104B60000A480B4B42189A42F6D30A4A02E0002345
:104B700042F8043B084B9A42F9D3FFF739FF00F0A3
:104B800015F8FFF7E1FD70474055000800000020D0
:104B90007400002074000020C00E0020FEE700001A
:104BA000014B1868704700BF1000002070B5002549
:104BB0000C4E0D4CA41BA410A54209D100F036FCEC
:104BC00000250A4E0A4CA41BA410A54205D170BDB5
:104BD00056F8253098470135EEE756F825309847C6
:104BE0000135F2E7385500083855000838550008F7
:104BF0003C55000810B5431E0A44914200D110BD37
:104C000011F8014B03F8014FF7E7034602449342C2
:104C100000D1704703F8011BF9E700000EB46FF0F4
:104C2000004100B59CB01DAB029006900791049125
:104C30000848094953F8042B0591006802A901931B
:104C400000F066F80022029B1A701CB05DF804EBBD
:104C500003B07047100000200802FFFF2DE9F04765
:104C60008E6882469E420C469046994637D88A897D
:104C700012F4906F31D00223256809696F1A6569B3
:104C800005EB450595FBF3F509F101033B449D4216
:104C900038BF1D46530530D5294600F02DFB06468A
:104CA00050B90C234FF0FF30CAF80030A38943F00D
:104CB0004003A381BDE8F0873A462169FFF79AFFD8
:104CC000A38923F4906343F08003A38126613E44CB
:104CD00026604E466561ED1BA5604E4500D94E46E7
:104CE00032464146206800F0A1FAA36800209B1BD1
:104CF000A36023681E442660DCE72A4600F056FBCA
:104D000006460028E2D12169504600F0A9FAC8E71A
:104D10002DE9F04F1D468B899DB01F0680460C463D
:104D200016460FD50B696BB9402100F0E5FA2060FB
:104D3000206128B90C23C8F800304FF0FF30C8E0DC
:104D4000402363610023099320238DF82930302309
:104D50004FF0010B8DF82A30039537463D4615F884
:104D6000013B0BB1252B3ED1B7EB060A0BD05346C6
:104D7000324621464046FFF771FF013000F0A48023
:104D8000099B534409933B78002B00F09D8000233E
:104D90004FF0FF32CDE90523049307938DF853308C
:104DA0001A932F46052217F8011B504800F030FADD
:104DB000049BD0B9D90644BF20228DF853201A078E
:104DC00044BF2B228DF853202A782A2A15D02F464B
:104DD00000200A25079A394611F8013B303B092B80
:104DE0004DD9B8B10FE02F46B8E7404A3D46801A8A
:104DF0000BFA00F018430490D3E7039A111D1268D0
:104E00000391002A01DB079204E0524243F00203BF
:104E1000079204933B782E2B0CD17B782A2B33D12D
:104E2000039B02371A1D1B680392002BB8BF4FF07B
:104E3000FF3305932E4D03223978284600F0E8F918
:104E400038B14023401B03FA00F0049B01370343B1
:104E500004933978062227487E1C8DF8281000F02C
:104E6000D7F9002838D0244B13BB039B073323F01A
:104E7000070308330393099B4B4409936DE705FB34
:104E8000023201200F46A6E700230A251946013702
:104E90000593384610F8012B303A092A03D9002B24
:104EA000C8D00591C6E705FB012101230746F0E7BD
:104EB00003AB00932246114B04A94046AFF3008098
:104EC000B0F1FF3F8146D6D1A3895B063FF535AFF0
:104ED00009981DB0BDE8F08F03AB00932246074B45
:104EE00004A9404600F082F8EAE700BF0455000834
:104EF0000A5500080E550008000000005D4C00082F
:104F00002DE9F04791461F468A680B690646934291
:104F1000B8BF1346C9F8003091F843200C46DDF8BD
:104F2000208012B10133C9F800302368990642BFCE
:104F3000D9F800300233C9F80030256815F00605AD
:104F400007D104F1190AE368D9F800209B1AAB4293
:104F500029DC94F843302268003318BF01239206FD
:104F60002ED404F1430239463046C047013021D0E7
:104F70002368E56803F00603042B18BF0025D9F861
:104F800000204FF0000908BFAD1AA368226908BFCE
:104F900025EAE5759342C4BF9B1AED181A344D45B6
:104FA0001AD1002008E00123524639463046C04756
:104FB000013003D14FF0FF30BDE8F0870135C2E783
:104FC0003020E11881F843005A1C94F8451022441F
:104FD000023382F84310C4E70123224639463046A3
:104FE000C0470130E6D009F10109D8E72DE9F043C7
:104FF00001F1430C0C46097E85B06E291746064622
:1050000098460C9A00F0B38022D8632936D00AD88B
:10501000002900F0B980582900F0838004F142058E
:1050200084F8421032E0642901D06929F6D1206861
:105030001368050603F104012AD51B681160002BD3
:1050400003DA2D225B4284F843206F480A2239E0BC
:10505000732900F09D8008D86F2920D07029DDD1F8
:10506000236843F02003236003E0752917D07829D3
:10507000D4D17823654884F8453055E0136804F1AD
:105080004205191D1B68116084F8423001238CE031
:105090001B6810F0400F116018BF1BB2CFE71368F8
:1050A0002568181D1060280601D51B6802E06806F7
:1050B000FBD51B886F2914BF0A2208225248002101
:1050C00084F843106568002DA560C0F295802168C2
:1050D00021F004012160002B3DD1002D40F08E8095
:1050E0006546082A0BD12368DB0708D52369626867
:1050F0009A42DEBF302305F8013C05F1FF35ACEBE9
:1051000005032361CDF800803B4603AA21463046C3
:10511000FFF7F6FE01304DD14FF0FF3005B0BDE88E
:10512000F083394884F84510136821681D1D1B68F9
:1051300015600A060BD5CA0744BF41F02001216063
:105140001BB9226822F0200222601022B7E74D0628
:1051500048BF9BB2EFE76546B3FBF2F102FB1133A8
:10516000C35C05F8013D0B460029F5D1B9E713688A
:105170002568181D6169106028061B6801D5196033
:1051800002E06A06FBD51980002365462361B9E772
:105190001368191D11601D6862680021284600F01F
:1051A00037F808B1401B606063682361002384F80E
:1051B0004330A7E723692A4639463046C0470130C5
:1051C000AAD023689B0713D4E068039B9842B8BF1A
:1051D0001846A3E701234A4639463046C047013006
:1051E0009AD00135E368039A9B1AAB42F2DCEBE7F5
:1051F000002504F11909F5E7002BACD1037804F17F
:10520000420584F842306CE7155500082655000821
:1052100010B5C9B202449042034601D1002303E015
:105220001C7801308C42F6D1184610BD884210B56A
:1052300001EB020307D8421E99420AD011F8014B34
:1052400002F8014FF8E78342F5D98118D21AD34208
:1052500000D110BD13F8014D01F8014DF7E7000032
:1052600038B50546002943D051F8043C0C1F002BEB
:10527000B8BFE41800F0D0F81E4A1368104633B9DE
:10528000636014602846BDE8384000F0C6B8A34209
:105290000BD921686218934201BF1A685B685218E3
:1052A000226063600460EDE713465A680AB1A242C7
:1052B000FAD919685818A0420BD12068014458182F
:1052C00082421960DED110685268014419605A6048
:1052D000D8E702D90C232B60D4E7206821188A4232
:1052E00001BF116852680918216062605C60C9E7FB
:1052F00038BD00BF080E002070B5CD1C25F0030599
:1053000008350C2D38BF0C25002D064601DBA942BF
:1053100003D90C233360002070BD00F07DF8214AD2
:105320001468214691B9204C23681BB9304600F01F
:1053300063F820602946304600F05EF8431C24D113
:105340000C233046336000F068F8E4E70B685B1B21
:1053500018D40B2B0FD90B60CC18CD50304600F071
:105360005CF804F10B00231D20F00700C31AD3D012
:105370005A42E250D0E74B688C4216BF636013601C
:105380000C46EBE70C464968CCE7C41C24F0030448
:10539000A04205D0211A304600F02EF80130CFD0BF
:1053A0002560DBE7080E00200C0E0020F8B507464C
:1053B00014460E4621B9BDE8F8401146FFF79CBFE0
:1053C00022B9FFF74DFF25462846F8BD00F026F824
:1053D000A0420FD221463846FFF78EFF054600282F
:1053E000F2D031462246FFF705FC31463846FFF73A
:1053F00037FFE9E73546E7E738B50023054C0546B2
:1054000008462360FFF7C8FA431C02D1236803B1A2
:105410002B6038BDBC0E00207047704751F8043C2B
:10542000181F002BBCBF0B58C0187047F8B500BF41
:10543000F8BC08BC9E467047F8B500BFF8BC08BC75
:045440009E467047CD
:1054440002030405060708090A0B0C0D0E0F1010C1
:105454000102000049444C45000000001000000017
:10546400020000004D736750726F647563657200CB
:1054740068540008214400080000000000000000F7
:10548400800000004D7367436F6E73756D65720025
:1054940088540008E94500080000000000000000EE
:1054A400800000004C45447300000000A85400082C
:1054B40075460008000000000000000080000000A5
:1054C4004D61696C20496E697420426567696E0D8F
:1054D4000A0000004D61696C2076616C75653A20A4
:1054E40025640D0A00000000000000000000000018
:1054F4000102030406070809000000000102030476
:10550400232D302B2000686C4C00656667454647A8
:10551400003031323334353637383941424344452B
:10552400460030313233343536373839616263649A
:0455340065660000A8
:045538001502000850
:04553C00F101000871
:105540001000000001000000AAAAAAAA0024F4008A
:105550001400002000000000000000000000000017
:10556000000000000000000000000000000000003B
:10557000000000000000000000000000000000002B
:10558000000000000000000000000000000000001B
:10559000000000000000000000000000000000000B
:1055A00000000000000000000000000000000000FB
:0455B00000000000F7
:0400000508004B554F
:00000001FF
